:020000040800F2
:1000000070090020794B0008BB0E0008BD0E0008E7
:10001000BF0E0008C10E0008C30E0008000000005B
:10002000000000000000000000000000C50E0008F5
:10003000C70E000800000000C90E0008CB0E000823
:100040009B4B00089B4B00089B4B00089B4B0008F8
:100050009B4B00089B4B00089B4B00089B4B0008E8
:100060009B4B00089B4B0008F70E00089B4B0008B9
:100070009B4B00089B4B00089B4B00089B4B0008C8
:10008000751100089B4B00089B4B00089B4B000818
:100090009B4B00089B4B00089B4B0008CD0E0008B3
:1000A0009B4B00089B4B00089B4B00089B4B000898
:1000B0009B4B00089B4B0008B70E00089B4B0008A9
:1000C0009B4B00089B4B00089B4B00089B4B000878
:1000D0009B4B0008B50E00089B4B00089B4B00088B
:1000E0009B4B00089B4B00089B4B000800F002F85C
:1000F00000F06AF80AA090E8000C82448344AAF158
:100100000107DA4501D100F05FF8AFF2090EBAE855
:100110000F0013F0010F18BFFB1A43F0010318473B
:1001200014A4000034A400000A444FF0000C10F89E
:10013000013B13F0070408BF10F8014B1D1108BF65
:1001400010F8015B641E05D010F8016B641E01F805
:10015000016BF9D113F0080F1EBF10F8014BAD1C55
:100160000C1B09D16D1E58BF01F801CBFAD505E073
:1001700014F8016B01F8016B6D1EF9D59142D6D3CD
:10018000704700000023002400250026103A28BFF5
:1001900078C1FBD8520728BF30C148BF0B607047F9
:1001A000662909F01682642906F03A840020704717
:1001B0001FB506F0C5FF04000020002108F0D8F8A4
:1001C000E0601FBD10B510BD07F0FEF81146FFF747
:1001D000EFFF00F0FFF807F01CF903B4FFF7F2FFA0
:1001E00003BC00F0A3FE000010B5B048008809F081
:1001F0002BF8AF4909F070F8012109F04CFA08F02A
:100200006DFEAC4AAC4B08F08FFBAC4AAC4B08F02F
:100210008BFB6FF00B0209F010FA08F0BFF8A94948
:100220000978002909D0A849884206DCBDE81040B9
:100230004FF4FA71012000F06BBA10BDDFF88C8228
:10024000A34DA44C4FF4407714263946404604F0A1
:1002500048FEE86808F042FE02460B469EA006F003
:100260009FFB286908F03AFE02460B469EA006F066
:1002700097FB686908F032FE02460B469FA006F025
:100280008FFB022000F0B1F92068401CB0FBF6F1B2
:10029000206006FB11000028D7D1FFF7A5FF2068DA
:1002A00042F210718842D0D300202060CDE738B5EB
:1002B00000214FF0006004F0B9FC4FF4A06004F09E
:1002C00081FC1E208DF8000000258DF801508DF86E
:1002D000025001248DF80340684604F078FC172092
:1002E0008DF800008DF801408DF802408DF8034034
:1002F000684604F06CFC0A208DF800008DF801506F
:100300008DF802508DF80340684604F060FC102020
:100310008DF800008DF801408DF802408DF8034003
:10032000684604F054FC38BD70B50024FFF7BFFFE9
:10033000482000F011F94FF47A75284600F055F97D
:10034000641CE4B2052CF8D300F0CEF95F4D4FF4F5
:1003500040742146284604F0C4FD01F0B5FA01F0CE
:1003600003FB00F0DEFA4FF41646304600F0F9FDCC
:10037000304600F089FE65A006F012FB6CA006F086
:100380000FFB2146284604F0AAFD03F08CFF00F085
:10039000FFFC00F04BFC01280ED02146284604F05B
:1003A0009EFDC82000F021F92146284604F099FD61
:1003B000C82000F01AF9F0E700F05AFC00F081FCC8
:1003C00000F056FC00F0B1FC01F055FBBDE87040B8
:1003D00000F01AB9DFF86CA15B4A00248AF80040EB
:1003E0000A21117059490C80FFF79EFF384D68694A
:1003F0005749086003F030FF4FF47A7000F0F5F8C9
:10040000324F4FF440763146384604F068FDA84636
:10041000B146DFF840B13D4640F6B836304600F010
:10042000E4F84F464946284604F05BFD304600F0AC
:10043000DCF83946284604F052FD4746D8F80C004F
:1004400008F04CFD02460B4623A006F0A9FA3869D5
:1004500008F044FD02460B4623A006F0A1FA786995
:1004600008F03CFD02460B4624A006F099FA7F698D
:100470002146384609F038F820F00040594608F087
:10048000F7FF10D317F0FF4F0DD04FF480712846BF
:1004900004F027FD01228AF800204946284604F08E
:1004A0001EFDFFF7CBFE3C46B8E700001800002019
:1004B000333353406DC5FEB27BF2F23FC3F5285C87
:1004C0008FC2ED3F4C00002033337340000C0140DD
:1004D000F402002000000020616E676C655F726F9F
:1004E0006C6C3A25660D0A00616E676C655F706919
:1004F0007463683A25660D0A00000000616E676C3F
:10050000655F7961773A25660D0A0000BBB6D3AD09
:10051000CAB9D3C3C6F4CCECBFC6BCBC4255545414
:100520004552464C59CBC4D0FDD2ED0D0A00000017
:100530005151C8BAA3BA3437313032333738350D58
:100540000A000000D0000020AD010020D8000020EB
:10055000580000206666663F4FF0E0210A6922F0ED
:1005600004020A61274AC00800EB40031070C3EB85
:10057000C0104FF6FF7303EAC0005080086900F016
:10058000FE00086170471F4910B54A8850434FF07C
:10059000E022506100239361106940F00100106176
:1005A00010694860C40701D0C003F9D5106900F094
:1005B000FE001061936110BD124910B50A785043D6
:1005C0004FF0E022506100239361106940F0010078
:1005D000106110698860C40701D0C003F9D51069A3
:1005E00000F0FE001061936110BD064A4FF496635F
:1005F00005E0D360D168491ED160491CFAD1401E84
:10060000F7D270470800002070B5012192B008466B
:1006100004F0DAFD01214FF4017004F0DEFD8020CA
:10062000ADF8400000248DF8434010A92A4804F09A
:10063000ECFB2A4E304605F0FDFF29480090294882
:1006400001A9012581E8310028020494CDE9054083
:1006500080000790202008900002CDE90904694637
:10066000304606F054F80121304606F07AF88DF84D
:1006700030500B948DF831504FF46020CDE90D04CB
:10068000174C8DF83C504C3C0BA9204605F056FE0B
:10069000052301220721204605F0D0FE0121204636
:1006A00005F07EFE0121204605F070FE204605F093
:1006B0008AFE204605F08CFE0028FAD1204605F07F
:1006C0008EFE204605F090FE0028FAD1012120463A
:1006D00005F091FE12B070BD000801400800024014
:1006E0004C2401401800002008B50121082004F026
:1006F00074FD4FF47060ADF8000003208DF8020027
:1007000010208DF8030069460F4804F07EFB08BDF9
:100710002DE9F0410F4604464FF440760A4D0DE0B6
:100720003146284604F0DDFB3846FFF75EFF3146D0
:10073000284604F0D4FB3846FFF757FF641EE4B2A6
:10074000EED2BDE8F0810000000C014070B5F34826
:10075000016821F470010160016841F440110160F9
:10076000EF4C0120C4F89401C4F89801042004F56A
:10077000CA74FFF721FF002525600420FFF71CFF46
:10078000656070BDE54810B5016821F47001016035
:10079000016841F440110160E14C0020C4F8980167
:1007A000C4F89401042004F5CA74FFF705FF012082
:1007B00060602060BDE810400420FFF7FDBE70B50A
:1007C000D6480024016821F470010160016841F4F9
:1007D00000010160D24D0126C5F894613046FFF753
:1007E000EBFEC5F898610120FFF7E6FE07E0641C08
:1007F000A4B2FA2C03D9FFF7C5FF012070BDD5F8CC
:1008000014010028F3D1C5F8980170BD70B5C44C2F
:100810000025C4F89851C148016821F470010160B5
:10082000016841F440110160C4F89451022004F5BC
:10083000CA74FFF7C1FE012060600220FFF7BCFE12
:10084000656070BD70B5B64C0026C4F89861B348B9
:10085000016821F470010160016841F440110160F8
:100860000125C4F89451022004F5CA74FFF7A4FED0
:1008700065600220FFF7A0FE666070BD2DE9F041C3
:100880000546A648016821F470010160016841F441
:1008900040110160A24E0027C6F898713C464FF007
:1008A0000108E809C6F894016806050E0220FFF762
:1008B00083FEC6F898810220FFF77EFEC6F8987185
:1008C0000220FFF779FE641CE4B2082CE9D3BDE8EE
:1008D000F0812DE9F04191480024016821F4700174
:1008E0000160016841F4000101608D4E25462746F4
:1008F0004FF00108C6F898710220FFF75DFEC6F8B8
:1009000098816006040ED6F8140108B1641CE4B2A4
:100910000120FFF751FE6D1CEDB2082DEAD32046F1
:10092000D5E7F8B50121052004F057FC2020ADF8EB
:1009300000001424794E8DF8034003258DF80250F1
:100940006946304604F061FA4020ADF800008DF8A9
:1009500003408DF802506946304604F056FA70495B
:100960000120C1F89801C1F89401F8BD2DE9F041CA
:100970001D4616460C460746FFF7E8FE7806000EB1
:10098000FFF77CFFFFF71BFF60B92046FFF776FFFC
:10099000FFF715FF00240BE02878FFF76FFFFFF744
:1009A0000EFF18B1FFF7EEFE002090E7641C6D1CEF
:1009B000B442F1DBFFF7E6FE012088E710B5FFF750
:1009C000D5FF08B1002010BD4FF0FF3010BD2DE95C
:1009D000F0411D4614460F460646FFF7B7FE700667
:1009E000000EFFF74BFFFFF7EAFE18B1FFF7CAFE54
:1009F00000206CE73846FFF741FFFFF7E0FEFFF706
:100A0000A5FE012000EB4600C0B2FFF737FFFFF75D
:100A1000D6FE09E0FFF75DFF2870012C0AD0FFF732
:100A2000F5FE641EE4B26D1C002CF3D1FFF7AAFEA4
:100A300001204CE7FFF706FFF3E710B5FFF7C7FF0C
:100A400008B1002010BD4FF0FF3010BD70B5154645
:100A50000E460446FFF77AFE6006000EFFF70EFF13
:100A6000FFF7ADFE18B1FFF78DFE002070BD3046D8
:100A7000FFF704FFFFF7A3FE2846FFF7FFFEFFF78F
:100A80009EFEFFF77FFE012070BD0020704770B50D
:100A90000D460446FFF75AFE3C20FFF7EFFEFFF736
:100AA0008EFE2046FFF7EAFEFFF789FE2846FFF795
:100AB000E5FEFFF784FEFFF765FE4FF47A742046EB
:100AC000FFF77AFD2046FFF777FD2046FFF774FD1C
:100AD0002046FFF771FD2046BDE87040FFF76CBD72
:100AE00010B50446FFF732FE3C20FFF7C7FEFFF7C4
:100AF00066FE2046FFF7C2FEFFF761FEFFF726FE07
:100B00003D20FFF7BBFEFFF75AFEFFF7E2FE04466B
:100B1000FFF798FEFFF736FE204610BD00080140A3
:100B2000000021422DE9F041934D0E4607464FF457
:100B300000442146284604F0D4F9384600F09AF9DA
:100B40000746304600F096F92146284604F0C7F9DA
:100B50003846BDE8F08170B5874D06464FF4004435
:100B60002146284604F0BDF9304600F083F9002004
:100B700000F080F906462146284604F0B0F93046D8
:100B800070BD2DE9F047DFF8F0910E4604464FF4B2
:100B9000004815464146484604F0A3F9204600F0B7
:100BA00069F90746002404E0305D00F063F9641C35
:100BB000E4B2AC42F8D34146484604F090F93846D6
:100BC000BDE8F0872DE9F047DFF8AC910E4604460A
:100BD0004FF4004815464146484604F082F9204645
:100BE00000F048F90746002405E0002000F042F933
:100BF0003055641CE4B2AC42F7D34146484604F099
:100C00006EF93846DCE770B55C4C0D46064680212F
:100C1000204604F066F92A463146A020FFF7B1FFCE
:100C20002046BDE87040802104F059B91CB554A09D
:100C30000522D0E90010CDE9001069463020FFF709
:100C4000A0FF11208DF80100052269461020FFF752
:100C5000B9FF002069460A5CA52A03D1401CC0B236
:100C60000528F8D3052801D000201CBD01201CBD9B
:100C700010B5424C8021204604F033F90522424948
:100C80002A20FFF77EFF01212120FFF74BFF0121E2
:100C90002220FFF747FF28212520FFF743FF2021CF
:100CA0003120FFF73FFF26210846FFF73BFF0F21CA
:100CB0002020FFF737FF2046BDE81040802104F0D8
:100CC0000EB910B52D4C8021204604F00AF90F21F1
:100CD0002020FFF727FF2046BDE81040802104F0C8
:100CE000FEB810B5254C8021204604F0FAF80E21FC
:100CF0002020FFF717FF2046BDE81040802104F0B8
:100D0000EEB810B50720FFF726FF400608D52022D1
:100D10001E496120FFF756FFFF212720FFF702FF42
:100D2000FF21BDE810402720FCE63EB50121092047
:100D300004F053FA4024ADF8084048208DF80B0029
:100D400003208DF80A0002A90C4804F05EF8062181
:100D5000012004F00EF900208DF804000C208DF81D
:100D6000050001208DF806000094684603F090FF0E
:100D7000402003F0EBFF3EBD00080140000C0140A5
:100D8000A5A5A5A5A50000001A000020D8010020F7
:100D90002DE9F04186B00121042004F01EFA012162
:100DA000082004F01AFA0121080304F016FA0121C0
:100DB000084604F0B5F801213A4804F0B1F83820AB
:100DC000ADF8000001258DF802501820DFF8D8801A
:100DD0008DF803006946404604F017F8EE03ADF8BD
:100DE0000060324F8DF8025010248DF803406946A0
:100DF000384604F00AF88020ADF800008DF8025063
:100E00008DF803406946404603F0FFFF4020ADF8EF
:100E1000000003208DF8020048208DF80300694689
:100E2000404603F0F2FF3146384604F058F80020FF
:100E3000ADF804004FF48271ADF80610ADF80C0067
:100E4000ADF81040ADF808006101ADF80A00ADF84A
:100E500012000720164CADF80E10ADF8140001A9D1
:100E6000204605F039F90121204605F0B1F906B018
:100E7000BDE8F08170B50E4C05460221204605F014
:100E800013FA0028F9D02946204605F0C9F90121B6
:100E9000204605F009FA0028F9D0204605F0C2F9ED
:100EA000C0B270BD00023000000C014000080140DB
:100EB00000300140704701F0B9B87047FEE7FEE727
:100EC000FEE7FEE7704770477047704710B5402057
:100ED00003F02EFF00280DD0402003F037FF00F074
:100EE000F1FD0F490F4A4868401C4860904201D903
:100EF0000020486010BD10B5102003F019FF002835
:100F00000CD0102003F022FF07480168491C016043
:100F100003F034FA02490888401C088010BD000024
:100F20002000002080969800F4000020704710B543
:100F30000021394B394A00E0491C1C88640601D461
:100F40009142F9D3344AC1B2121D118010BD32480A
:100F500001888906FCD53048001D0088C0F30800D0
:100F6000704730B5044685B0012144F2050004F015
:100F700034F94FF40071ADF8101003218DF8121000
:100F80001820274D8DF8130004A9284603F03DFFD3
:100F90002915ADF8101004208DF8130004A9284677
:100FA00003F033FF0020ADF804000094ADF8060014
:100FB000ADF80800ADF80C000C20174CADF80A0095
:100FC0006946204604F000FF0121204604F06FFF2F
:100FD00005B030BD104A0021121DC0F3080010807A
:100FE000121F0E4800E0491C13885B0601D48142A1
:100FF000F9D3704710B5044602E0FFF7EBFF641C1D
:1010000020780028F9D110BD0349091D0880081F68
:1010100001880906FCD5704700380140C0D40100A2
:1010200000080140F0B50C46064601218BB01F4672
:101030001546084604F0C8F8304605F0FBFA03AB45
:1010400020200021802283E807000691CDE90710C7
:101050004FF44050CDE909018DE8B00069463046B3
:1010600005F055FB0BB0F0BD70B50C4605460021F0
:1010700005F077FB2146284605F086FB2846BDE8AB
:101080007040012105F06DBB70B5054686B00121A9
:10109000052004F0A2F80121480404F0A7F8042474
:1010A000ADF8104003208DF812001820FF4E8DF887
:1010B000130004A9304603F0A8FE0820ADF8100084
:1010C0008DF8134004A9304603F09FFE26208DF8CA
:1010D000140000248DF815408DF8164001208DF87D
:1010E000170005A803F073FDADF80440ADF8064005
:1010F000ADF80840ADF80C400C20EF4CADF80A00FC
:1011000000950023EA4AEB492046FFF78BFFE94DA3
:1011100001222D1F4021284604F0EBFE6946284697
:1011200004F052FE0121284604F0C1FE01220221F2
:10113000204605F021FB0121204605F012FB06B0F8
:1011400070BDDC4AC0F3080000211080121FDB488C
:1011500000E0491C13885B0601D48142F9D3704733
:1011600010B5044602E0FFF7ECFF641C207800286D
:10117000F9D110BD2DE9F05F4FF40014204605F0C1
:1011800020FB00280FD0204605F029FBCC4C002383
:10119000C74D636109E0401C6061102805DD636193
:1011A000E85CA52805D0BDE8F09F6069295CA52909
:1011B000F1D16269102AF6DA0020A361A1695618FC
:1011C000491CAE5DA161304480B20D29F6DBA9183F
:1011D000C0B2897B8842E6D1BA4803602078401CBF
:1011E000C0B22070642800D9237020784FF4806149
:1011F000C207B54845D003F074FE60690544A8787D
:10120000E97800EB012060602879697900EB012022
:10121000A060A879E97900EB0120C0F58060206129
:10122000287A697A00EB0120C0F58060E060287BB5
:10123000783807F026FBA54EA54F32463B4607F00F
:101240009BF907F0ABF8A3490860E87AC0F1780091
:1012500007F017FB32463B4607F08EF907F09EF881
:101260009D490860A068A0F5007007F00AFB21F016
:1012700000410022994B07F01BFB05D24FF4007090
:1012800012E003F02CFEB8E7A068A0F50070B0F5FE
:10129000967FA06801DD643806E0A0F5007010F5C7
:1012A000967F02DAA0686430A06060688C4D8D4E35
:1012B000DFF83482DFF834A2DFF834B2DFF834929A
:1012C000A8B36068C11700EB91708010606060681F
:1012D000894F5A28606809DA07F0D3FA4FF03332A1
:1012E000864B07F021FB0022854B1BE05A2808DBC8
:1012F0006068B32805DC606800EB800000F64F20D2
:1013000014E06068B32812DB6068FF280FDC6068B7
:10131000B33807F0B6FA4FF066327A4B07F004FBA9
:101320000022794B07F06CF807F07EFA38802069CC
:10133000C11700EB917080102061206907F06CFFED
:101340004FF08647394608F0CFF820F00040494674
:1013500007F08EFF20690ED207F05EFF394608F0D5
:10136000C3F8594607F0B8FF6FF0060108F093F98B
:1013700007F0B4FD30E007F04FFF394608F0B4F84D
:101380004045206913D307F047FF394608F0ACF811
:10139000494607F0CFFD594607F09EFF6FF0060162
:1013A00008F079F907F09AFD584A534612E007F021
:1013B00033FF394608F098F8494608F095F8594641
:1013C00007F08AFF6FF0060108F065F907F086FD67
:1013D0004E4A4F4B07F014F84FF066324D4B07F072
:1013E00093FC06F0DBFF2860E068C11700EB91700A
:1013F0008010E060E06807F00FFF394608F074F8ED
:1014000020F000404D46494607F032FFE0680ED21A
:1014100007F002FF394608F067F8594607F05CFF0D
:101420004FF03C4107F058FF07F058FD30E007F05F
:10143000F3FE394608F058F84045E06813D307F04A
:10144000EBFE394608F050F8294607F073FD59467F
:1014500007F042FF6FF0060108F01DF907F03EFDAE
:101460002A4A2B4B12E007F0D7FE394608F03CF829
:10147000294608F039F8594607F02EFF6FF00601AB
:1014800008F009F907F02AFD204A534607F04AFB05
:101490004FF066321F4B07F037FC06F07FFF3060DD
:1014A000A068C11700EB9170801035E00008014082
:1014B000F8010020044400406C000240C0D4010048
:1014C0002C000020F4000020000C014085EB51B8F6
:1014D0001E052E404C0100205001002000C072402B
:1014E000EC000020F0000020000070C2999922C09A
:1014F0000000A04100007042D80000203333284093
:1015000000409F4066662940009CAB409A9999999B
:10151000999922406666E63FA060A06807F07CFECD
:10152000394607F0E1FF054907F0D6FE4FF03C4190
:1015300007F0D2FE0249086035E6000000002042B4
:10154000F80000202DE9F84FBE48BF4C006820632A
:10155000BE4800686063226BBD48BE49824201DD1F
:10156000206303E0226B8A4200D92163626B8242CE
:1015700001DD606303E0606B884200D96163B64DB2
:10158000E968206B07F0B0FF20642969606B07F001
:10159000ABFF6064216CA06E07F0CCFCA066616CB0
:1015A000E06E07F0C7FCE066A06EAC4EB04200DD16
:1015B000A666A06EAA4FB84200D9A766E06EB042F8
:1015C00000DDE666E06EB84200D9E766DFF8948297
:1015D000A06E414607F080FEDFF88C9282464946B5
:1015E000206C07F079FE514607F0A4FCA063414649
:1015F000E06E07F071FE80464946606C07F06CFEB5
:10160000414607F097FCE0632968A06B07F06CFF88
:10161000A0646968E06B07F067FFE064A16C206E6E
:1016200007F088FC2066E16C606E07F083FC606662
:10163000206EB04200DD2666206EB84200D92766D3
:10164000606EB04200DD6666606EDFF820A20026A4
:10165000B84200D96766A06C2065E06C6065A16D3A
:10166000206D07F041FFDFF80882414607F034FEA5
:1016700007468049A06C07F02FFEDFF8FC918346F7
:101680004946206E07F028FE594607F02DFF3946DF
:1016900007F02AFF6062E16D606D07F025FF4146AB
:1016A00007F01AFE07467549E06C07F015FE804604
:1016B0004946606E07F010FE414607F015FF3946B7
:1016C00007F012FFA062206DA065606DE065DAF89A
:1016D0000000574620F000404FF0814107F0C8FD60
:1016E00063D26660A660E06865490860D5F814B00A
:1016F000644F8046DFF890A1DFF89091B842014630
:10170000584614DB07F0F0FE009050451CD35946B4
:10171000404607F0E9FEB84201DA009814E041467D
:10172000484607F0E1FE594607F004FC0CE007F0DC
:10173000DBFE504508D2B84206DB4946584607F062
:10174000D3FE414607F0D0FE07F0C8FB88460746A7
:101750004F4A504B07F0E8F806F020FE206138466B
:1017600041464D4A4D4B07F0DFF807468846206A50
:1017700007F0B4FB3A46434606F042FE06F00EFE82
:101780002062216A4648814203DC216A4548814241
:1017900000D92062A86807F0A1FB434A434B07F039
:1017A000C3F806F0FBFD60610EE06869E060A968BF
:1017B000386807F099FE3E4907F08EFD6060A86822
:1017C000206FA660A86820673A484FF4FA738178C2
:1017D000C07801EB00203849984202D80A689A4242
:1017E00001DD01222270642805D20868642802DA2B
:1017F0006869E0602670207850B9A661E1692F48D9
:10180000814203DCE1692E48814200D9E061266211
:101810006169206907F08EFB216A07F08BFB616824
:1018200007F057FEA16807F085FBE06225480078C5
:10183000002805D16869E060E662A66266622662F9
:10184000BDE8F88FEC0000204C000020F0000020E4
:1018500000002042000020C2F40200200000FA43F1
:101860000000FAC30AD723BC000080C0F8000020A3
:1018700000005041A01AFF3F0AD7233C6666E63FAE
:101880001801002000003443000080800000B443B1
:1018900048E17A14AE4726407B14AE47E17AA43F74
:1018A00000009643000096C39A99999999991F4010
:1018B0000000C841D801002030000020000048424C
:1018C000000048C2D000002030B5012189B0084690
:1018D00003F08CFC0121042003F07FFC0320ADF811
:1018E0001C0018218DF81F108DF81E0007A946480E
:1018F00003F08BFA4FF47A70ADF814000220ADF8C3
:10190000100000244507ADF81640ADF8124004A9B8
:10191000284603F049FD6020ADF80840ADF800000E
:101920003A4C0120ADF802002088ADF80600694667
:10193000284603F072FD6088ADF806006946284627
:1019400003F0A0FD0821284604F0B4F80821284639
:1019500004F0C0F80121284604F084F8012128464B
:1019600003F0CAFF09B030BD30B589B001210220B3
:1019700003F03CFC0121082003F02FFC0320ADF80C
:101980001C0018218DF81F108DF81E0007A9204893
:1019900003F03BFA4FF47A70ADF8140002240020F3
:1019A000ADF810401B4DADF81600ADF8120004A9BB
:1019B000284603F0F9FC6020ADF80840ADF80000BF
:1019C000124C0120ADF80200A088ADF8060069466F
:1019D000284603F093FDE088ADF8060069462846E6
:1019E00003F0C6FD0821284604F07EF808212846A9
:1019F00004F080F80121284604F034F8012128463B
:101A000003F07AFFAEE7000000080140C8000020A4
:101A1000000C014000040040FE480123FE4A817A88
:101A20000020012911D0022911D0D189491CD1816E
:101A3000D189142919D91179002916D0D178012911
:101A40000AD0D178022911D00DE0D37001E0022133
:101A5000D1701371D081EBE7917819B19070EF4993
:101A6000087000E09370D0811071704751780029A0
:101A7000F9D05070F7E73EB50121042003F0B6FB22
:101A8000E74C204603F0F8FB40F6C411ADF8041013
:101A90004720ADF800000021ADF80610ADF80210A7
:101AA0006946204603F080FC0121204604F04AF9F3
:101AB00001221146204603F034FF0121204603F0A5
:101AC0001BFF3EBD2DE9F05FFFF71BF9D24C4FF035
:101AD0000008D0484146C4F81880425CA369491CFC
:101AE0001A44C9B2A2611E29F7D3114641F64C52DD
:101AF000914271D200296FD0827FCBB29A426BD1D2
:101B0000C27FC1F307218A42F9D1C27881780123CB
:101B100003EB022211448DB22582017942794FF004
:101B2000864701EB022161828179C2796FF0030956
:101B300001EB0221C1F580618EB2A682017A427A60
:101B4000DFF8E0A201EB0221C1F58061E182407D76
:101B500007F07AFB394607F0C7FC494607F09BFDC2
:101B6000CAF80000A089401CA081607810BB0DB3AA
:101B7000A8082082402804D200EB001000F2D170A7
:101B800017E0A0F14001802904D800EB800000F6A6
:101B9000D1200EE0C0383F280CD806F072FE00229B
:101BA000A14B06F0C1FE0022A04B06F029FC06F076
:101BB0003BFE2081E08808B92089E0802189E08807
:101BC000DFF86CB2DFF86C929B4D00F57A708142C1
:101BD00003D22089E08002E0CBE0E0882081C4F8D5
:101BE0002480B008A08207F02FFBB846394607F0E2
:101BF0007BFC20F00040AA46294607F039FBA08A6A
:101C00000FD207F021FB414607F06EFC594607F062
:101C100063FB6FF0060107F03EFD216B07F08AF9C8
:101C20003BE007F011FB414607F05EFC07464845E4
:101C3000206B17D307F052F905460E463846514639
:101C400007F078F97D4907F047FB6FF0060107F0D0
:101C500022FD07F043F97A4A7A4B06F0D1FB33466E
:101C60002A4616E007F03AF90E4605463846514630
:101C700007F03AFC714907F02FFB6FF0060107F0FF
:101C80000AFD07F02BF96E4A6F4B06F0B9FB2A46A6
:101C9000334606F0B5FB06F081FBE061E08A800880
:101CA000E08207F0D1FA414607F01EFC20F0004028
:101CB000514607F0DDFAE08A0FD207F0C5FA414637
:101CC00007F012FC594607F007FB4FF03C4107F0C4
:101CD00003FB616B07F02EF937E007F0B5FA4146D8
:101CE00007F002FC07464845606B13D307F0F6F88F
:101CF00005460E463846514607F01CF94F4907F095
:101D0000EBFA6FF0060107F0C6FC07F0E7F84C4A63
:101D10004D4B12E007F0E2F805460E4638465146B4
:101D200007F0E2FB454907F0D7FA6FF0060107F02C
:101D3000B2FC07F0D3F8424A424B06F0F3FE2A46C3
:101D4000334606F05DFB06F029FB2062608A8008BE
:101D5000608207F079FA414607F0C6FB3B4907F07D
:101D6000BBFA4FF03C4107F0B7FAA062FFF754FE10
:101D700002E0606A401C6062218941F29410814255
:101D800003D821894010814200D22081BDE8F09F14
:101D90002DE9F84F204C218941F268002C4E2D4D41
:101DA000814200D92081286920F00041E86820F0B4
:101DB000004007F05DFB01D8E86800E02869314683
:101DC00020F0004007F088FAE0634FF07E50606436
:101DD00000202064206C07F037FADFF87CB006465C
:101DE000DBF80010DFF874A0DAF8000007F07CFBE5
:101DF0001B49096807F078FB616C07F06DFA05462E
:101E0000208907F021FA294607F094F8E16B07F0E2
:101E100091F827E0D8010020D00000200400002025
:101E2000000800404C01002000001E400022AD4090
:101E30000000A041000070C2000070420000F041AC
:101E40009A999999999922C0999922400000204223
:101E50000000A040F4020020700000207400002068
:101E600078000020314607F065F8022107F013FCE6
:101E700007F0B2F9934E3080308844F250677D10FD
:101E8000B84201D9378003E03088A84200D23580BB
:101E90008D4C206C07F0D8F9DBF800108146DAF899
:101EA000000007F047F88949096807F043F8616CBA
:101EB00007F012FA8046208907F0C6F9414607F07C
:101EC00039F8E16B07F036F8494607F033F802219C
:101ED00007F0E1FB07F080F97D4C20802188B946AE
:101EE0003846494501D9208003E02088A84200D225
:101EF0002580754F386C07F0A7F90090DAF80010CC
:101F0000DBF8000007F0F0FA7049096807F0ECFA16
:101F1000796C07F0E1F98046388907F095F9414678
:101F200007F008F8F96B07F005F8009907F002F8D8
:101F3000022107F0B0FB07F04FF9DFF89881A8F80D
:101F40000000B8F800104846494502D9A8F800003A
:101F500005E0B8F800104046A94200D20580386C70
:101F600007F072F90090DAF80000DBF8001080F05A
:101F7000004007F0B9FA5549096806F0DBFF796CB3
:101F800007F0AAF98246388907F05EF9514606F053
:101F9000D1FFF96B06F0CEFF009906F0CBFF0221CE
:101FA00007F079FB07F018F94B4908800A88484682
:101FB000824201D9088003E00888A84200D20D803F
:101FC0003878464B4FF080421D1D20B1388940F6CD
:101FD000C417B84206D200209086108740F2E7303E
:101FE000188020E024880920A4F50C54283C94FB98
:101FF000F0F494863488A4F50C54283C94FBF0F457
:1020000014870988A1F50C51283991FBF0F1C1F52D
:102010007A711980B8F80010A1F50C51283991FB9C
:10202000F0F0C0F57A702880BDE8F88F70B52C4CC0
:102030000121204603F089FE002841D001212046DD
:1020400003F08FFE204DE86A401CE862686A0024B5
:10205000B0F5967F05D9FF212720FEF763FD6C625E
:102060002C81E86A1F49884200D1EC62E86A4FF48B
:10207000C871B0FBF1F201FB120010B9A8896881A8
:10208000AC8195F83800C00712D1FFF75BFAFFF773
:102090007FFE154E31691548006807F025FA14498E
:1020A0000860F1681348006807F01EFA12490860DA
:1020B000A86BB0F57A7F00D3AC63A86B401CA86313
:1020C00070BD0000CA000020D00000207800002071
:1020D000C8000020CE000020CC0000203C040040BE
:1020E0000008004000580F02F40200208000002089
:1020F000C00000207C000020C4000020F8B5FE4C89
:102100000023224694F82460D2E900125D1E56B1E5
:1021100090B102200DE01078C97B6B460122FEF7DA
:102120004DFC60B90DE0A67A4EB128B1607C58B97B
:1021300001208DF80000EEE78DF80030EBE728462F
:10214000F8BD9DF8000060740020F8BD38B500248B
:10215000E94D12E02868C27AA2420CD0407DA0422C
:1021600009D008786B4601222146FEF766FC10B1C3
:102170004FF0FF3038BD641CE4B269680879A042B2
:10218000E8D8002038BDDC4A30B40B4611684FF067
:10219000FF34CD7A854206D0497D814203D0516813
:1021A0000A79824202D8204630BC70470C7801463A
:1021B000204630BC0122FEF740BC38B5CE4D044667
:1021C00095F82300A04201D1002038BD0CB1302089
:1021D00000E000208DF80000A87C28B19DF80000E8
:1021E00040F002008DF8000095F8220028B19DF81B
:1021F000000040F080008DF8000028686B46012246
:10220000017D68680078FEF7D9FB10B14FF0FF3010
:1022100038BD85F82340D7E7F8B5044610F0700FB5
:102220004FF0000601D0012004E014B18DF80060E9
:1022300002E040208DF80000AF4D6B460122286877
:10224000817C68680078FEF7B9FB4FF0FF3760BB10
:102250009DF8000020F0400028738DF800606006B3
:1022600002D404208DF80000A00605D49DF80000DB
:1022700040F002008DF80000E00605D49DF8000053
:1022800040F001008DF80000200705D49DF8000003
:1022900040F038008DF8000028686B460122C17CB0
:1022A00068680078FEF78AFB10B1AE723846F8BD58
:1022B00024B1082C02D00020FFF77FFFAC722E75EE
:1022C0003220FEF760F90020F8BDF8B58A4D0446CB
:1022D000A87CA04201D10020F8BD87484FF0FF360E
:1022E0006B46D0E900104FF001020979007834B351
:1022F000FEF7A3FBD8BB9DF800006B4620F0200042
:102300008DF8000028680122017968680078FEF7DE
:1023100055FB60BB0320FEF736F902208DF8000064
:1023200095F8220070B382202AE028686B460122CB
:10233000017D68680078FEF741FBC0B92DE0FEF72B
:102340007CFBA0B9A87AC0079DF8000002D040F03D
:10235000200001E020F020008DF8000028686B4686
:102360000122017968680078FEF728FB08B1304641
:10237000F8BD0320FEF707F995F8220000B1802090
:102380008DF8000095F823000028CED09DF80000BD
:1023900040F030008DF80000C7E7AC749BE7F8B55B
:1023A000554D4FF0FF36A87A00287CD000248DF8D8
:1023B000004028686B460122C17B68680078FEF700
:1023C000FDFA00286FD128686B46012241796868C0
:1023D0000078FEF7F3FA002865D128686B460122E1
:1023E000017968680078FEF7E9FA00285BD195F872
:1023F0002400E0B30C208DF8000028686B46012211
:10240000017968680078FEF7D9FA002871D1322086
:10241000FEF7B9F8C0208DF80000A87AC00702D0F6
:10242000E0208DF8000028686B4601220179686879
:102430000078FEF7C3FA00285BD1687C18B102204F
:102440008DF8000001E08DF8004028686B460122FD
:10245000C17B68680078FEF7B1FA20BB8DF80040B8
:1024600028686B4601224179686800783DE0FFE703
:1024700004208DF8000028686B4601220179686805
:102480000078FEF79BFA70B9A87C88B9A87AC007D3
:102490000ED060208DF8000028686B46012201797B
:1024A0006868007800E024E0FEF788FA08BB01E0E5
:1024B0004020EFE73220FEF766F8687C18B1012073
:1024C0008DF8000001E08DF8004028686B4601227D
:1024D000C17B68680078FEF771FA50B92868064B2E
:1024E00001224179686810330078FEF767FA002806
:1024F00000D03046F8BD00001C0100202DE9F0415D
:10250000FF4D20F00104002695F8240010B10020B2
:10251000BDE8F081A87A4FF0FF3838B120402F7C19
:102520002874A04200D0464624B901E04046EFE7B7
:10253000287D40B10120FFF7E1FD3CB1FFF72FFFFF
:1025400020B12F74F2E70020FFF7D8FD3046DFE717
:1025500038B5EB4C4FF0FF35A17A31B3BC2801D32D
:10256000012010E0622801D302200CE02A2801D3C8
:10257000032008E0142801D3042004E00A2801D332
:10258000052000E006208DF80000E07A9DF800109C
:10259000884201D1002038BD20686B460122817835
:1025A00060680078FEF70AFA08B1284638BD9DF841
:1025B0000000E072EEE72DE9F84304464FF0FF39E2
:1025C000282844D80727CE4D00267CB10120FFF7EC
:1025D000F4FD20208DF800004FF00108012C17D0E9
:1025E000052C18D88DF8018005201FE00020FFF78A
:1025F000E4FD8DF800608DF8017028686B460222BA
:10260000817C68680078FEF7D9F900BB2E7529E057
:102610008DF80160E8E7142C04D802208DF8010041
:102620000A2003E003208DF801001420FFF790FF3B
:102630009DF801006B4607EB80108DF801002868BB
:102640000222817C68680078FEF7B8F910B148462C
:10265000BDE8F8830820A8722E7385F81480002046
:10266000FFF74CFF0020F3E7F8B5A54D04464FF007
:10267000FF37A87A28B395F8240010BB287D48B10D
:102680002CB1282C03D8E0B2FFF795FF24E00020FE
:10269000FFF791FF4FF47A76042C01D2042402E074
:1026A000B44200D93446B6FBF4F0401E8DF8000069
:1026B00028686B460122417868680078FEF77EF949
:1026C00008B1384616E79DF80000401CB6FBF0F054
:1026D000E8814008FFF73CFF00200BE738B5884C45
:1026E0004FF0FF35A17A19B3022806D0042806D08E
:1026F00008280ED010281BD10DE0002000E0082093
:102700008DF80000607A9DF80010B0EBD10F04D076
:1027100005E01020F4E71820F2E7002038BD20681B
:102720006B460122C17960680078FEF747F908B16D
:10273000284638BD9DF80000C0086072EDE738B546
:102740006F4C4FF0FF35A17A31B3FA2809D0B0F5BC
:10275000FA7F08D0B0F57A7F0FD0B0F5FA6F1BD1B1
:102760000DE0002000E008208DF80000207A9DF8A0
:102770000010B0EBD10F04D005E01020F4E71820D2
:10278000F2E7002038BD20686B460122817960683D
:102790000078FEF713F908B1284638BD9DF800000F
:1027A000C0082072EDE72DE9FC41554C80208DF8E2
:1027B000000020686B460122817C60680078FEF78B
:1027C000FDF84FF0FF37002832D16420FDF7DBFE23
:1027D00000258DF8005020686B460122817C6068DE
:1027E0000078FEF7EBF8002870D120686B460622CF
:1027F000817D60680078FEF720F9002866D19DF899
:1028000005009DF80310C007400F01F0010140EAE8
:1028100041019DF801004FF0010600F00100014365
:1028200009D0012905D0022915D036A004F0B8F846
:102830004CE0E67410E020686B460122C1786068C5
:102840000078FEF7FAF840BB9DF8000010F00F008A
:1028500020D0042822D0E574FF2004F80A0F4FF698
:10286000FF7104F8020C04F8010C6070A180A071E3
:102870002072A67026766576E572A572E560256100
:102880006561A576E576A5834FF4FA60FFF757FFFB
:1028900018B907E0254804F083F817E024A004F0F5
:1028A0007FF8C6E70220FFF719FF78B92A20FFF763
:1028B0004FFE58B9C820FFF7D7FE38B90020FFF700
:1028C0001DFE18B90020FFF700FD10B13846BDE825
:1028D000FC810020FFF7A0FC0020F8E77CB504464F
:1028E00007484FF0FF35817A11F0700F31D0016841
:1028F00040686B46097B00780622FEF79EF827E0C9
:102900001C010020556E737570706F7274656420C1
:10291000736F6674776172652070726F647563742B
:10292000207265762025642E0A000000E4A40008C9
:1029300048616C662073656E736974697669747931
:10294000207061727420666F756E642E0D0A00002F
:1029500008B128467CBDBDF8000040BA2080BDF813
:10296000020040BA6080BDF8040040BAA080002098
:102970007CBD7CB50446FE484FF0FF35817A0907DF
:1029800008D5016840686B46497B00780622FEF74F
:1029900054F808B128467CBDBDF8000040BA20803C
:1029A000BDF8020040BA6080BDF8040040BAA080C3
:1029B00000207CBDF8B5EE4C07464FF0FF35A07AFD
:1029C00040B120686B460222817B60680078FEF788
:1029D00034F808B128468DE5BDF80000646840BAB7
:1029E00005B2E08806F030FC0646B4F9080006F0AF
:1029F00013FC0446284606F00FFC214606F074FD41
:102A0000314606F00BFBDB4906F094FA102106F084
:102A100042FE06F0C5FB386000206BE52DE9FC4165
:102A200004004FF0FF3862D0206820B9606810B908
:102A3000A06800285CD0CE4F03226B467868114610
:102A40000078FDF7FAFFE0BB9DF80010082000EBCE
:102A5000111101F00F029DF801109DF8023000EBFA
:102A6000111100EB1310236840325B0093FBF2F26C
:102A700016B2626801F00F015200403192FBF1F191
:102A80000DB2A16800F00F004900403091FBF0F05A
:102A900004B2786806226B4600781146FDF7CDFF38
:102AA00078B9BDF80000BDF8021040BABDF80420A6
:102AB000304449BA52BA030A294422448DF80030FE
:102AC00000E014E08DF80100080A8DF80200100AF9
:102AD0008DF804008DF803108DF805207868062223
:102AE0006B4600781146FDF769FF002800D040468C
:102AF000EDE69F49097A39B1012907D002290AD0A8
:102B000003290BD0002103E0FA2101E04FF4FA7110
:102B10000180002070474FF47A71F9E74FF4FA61B1
:102B2000F6E7934A517A41B1012908D002290FD022
:102B300003290FD04FF0FF307047022100E004213D
:102B40000170D17C11B101784900017000207047FB
:102B50000821F5E71021F3E78549C97A072913D23F
:102B6000DFE801F01204060A0C0E1000BC2100E0A0
:102B700062210180002070472A21FAE71421F8E73A
:102B80000A21F6E70521F4E70021F2E7784991F8F8
:102B9000242012B14FF0FF307047C9890180002016
:102BA000704700210180481E70474FF0FF3070478A
:102BB0006F49097A41B1012908D002290AD00329B5
:102BC0000AD04FF0FF3070476B4900E06B4901605D
:102BD000002070476A49FAE76A49F8E7644A517A7F
:102BE00041B1012909D0022911D0032912D04FF097
:102BF000FF3070474FF4804101E041F69C71018045
:102C0000D17C11B1018849080180002070474FF440
:102C10008051F4E74FF40061F1E75549097C0170F8
:102C2000002070475249897A01B1012101700020CA
:102C3000704738B505464E484FF0FF34817A41B1B0
:102C4000016840686B46097C00780222FDF7F5FEBA
:102C500008B1204638BDBDF8000040BA28800020E9
:102C600038BD2DE9FE4F884641498146002491F840
:102C700024001E4625464FF0FF3BD0BB002030709D
:102C8000887AB0B3087CA0B3420600D5022482063D
:102C900000D5A41CC20600D5A41C000700D5A41DA5
:102CA0008A460968DAF804006B46897A00780222BD
:102CB000FDF7C3FEE8B9BDF8000047BAA74263D3E9
:102CC000DAF804004188B7EB510F13D9DAF8001095
:102CD00000786B46497C0122FDF7AFFE48B99DF8AC
:102CE0000000C00606D5FFF75AFB6FF00100BDE8F3
:102CF000FE8F0AE0DAF80010DAF804006B46C97AB1
:102D000000782246FDF799FE08B15846EFE7B7FB79
:102D1000F4F00C99401E087000203070A4B39AF8AB
:102D2000101050460A07694613D5BDF80020062545
:102D300052BAA8F80020BDF8022052BAA8F8022022
:102D4000BDF8042052BAA8F80420327842F00802F4
:102D50003270A5421AD0027C520617D54A19128841
:102D600052BAA9F80020327842F0400232700CE0EA
:102D70001C01002000000C420000034300008342BD
:102D800033330342333383411EE0AD1CA5420CD0E4
:102D9000027C920609D54A19AD1C128852BAA9F8CC
:102DA0000220327842F020023270A5420CD09AF80C
:102DB0001000C00608D54819008840BAA9F80400D8
:102DC000307840F010003070002090E72DE9F84393
:102DD000FA4E0546174696F8240089464FF0FF380C
:102DE00088B3B07A78B330686B460222817A706813
:102DF0000078FDF722FE30BBBDF8000044BAAC42BB
:102E000002D2002038701EE070684188B4EB510F88
:102E100010D9316800786B46497C0122FDF70DFE20
:102E200088B99DF80000C00604D5FFF7B8FA6FF026
:102E300001000DE43068EAB24B46C17A7068007850
:102E4000FDF7FBFD08B140460DE4B4FBF5F0401E74
:102E50003870002007E4D94981F82200002070472B
:102E60002DE9FE4F05460120D44E8DF800004FF0AD
:102E700000088DF8018030680C461746817C706828
:102E80006B4602220078FDF799FD4FF0FF3A0028CB
:102E90007AD1C820FDF777FB8DF8008030686B464B
:102EA0000122C17B70680078FDF788FD0028EFD112
:102EB00030686B460122417970680078FDF77EFD2D
:102EC0000028E5D130686B460122817C706800786B
:102ED000FDF774FD0028DBD130686B460122C17D0F
:102EE00070680078FDF76AFD0028D1D130686B4624
:102EF0000122017970680078FDF760FD0028C7D1D4
:102F00004FF00C098DF8009030686B460122017972
:102F100070680078FDF752FD002835D10F20FDF7CD
:102F200032FBB06A6B460122407A8DF800003068AF
:102F3000817870680078FDF741FD002824D1B06ADF
:102F40006B460122007A8DF8000030684178706885
:102F50000078FDF733FD002873D1B06A807A0FB195
:102F600040F0E0008DF8000030686B460122817966
:102F700070680078FDF722FD002862D12FB1B06A99
:102F8000C07A40F0E00001E04AE018208DF800002F
:102F900030686B460122C17970680078FDF70EFD3C
:102FA000F0BB17B1C820FDF7EEFA40208DF8000005
:102FB00030686B460122017970680078FDF7FEFCED
:102FC00070BB78208DF8000030686B460122417993
:102FD00070680078FDF7F2FC10BB3220FDF7D3FAE1
:102FE0008DF80080306847466B4641797068012251
:102FF0000078FDF7E3FC98B931687068B046897ACB
:1030000000786B460222FDF718FD48B9BDF80000B4
:10301000AF6040BAB0FBF9F06F60C6B22F6000E05D
:103020000FE0A76067602760002738E0D8F800103D
:10303000D8F804006B46C97A00780C22FDF7FDFC35
:1030400008B1504653E6BDF80000236840BA02B20A
:10305000BDF802001A4440BA01B2BDF80400226073
:10306000626840BA11446160A16800B20844A0607F
:10307000BDF806002B6840BA02B2BDF808001A4439
:1030800040BA01B2BDF80A002A606A6840BA114429
:103090006960A96800B208447F1CFFB2A860B7420B
:1030A000C4D328688322C117090441EA10410004EF
:1030B000002303F050FC3246002303F04CFC286050
:1030C00068688322C117090441EA10410004002303
:1030D00003F041FC3246002303F03DFC6860A86821
:1030E0008322C117090441EA10410004002303F0C0
:1030F00032FC3246002303F02EFCA86020684FF417
:103100000065C117090441EA104100042A46002362
:1031100003F021FC3246002303F01DFC20606068B0
:103120002A46C117090441EA10410004002303F0B4
:1031300012FC3246002303F00EFC6060A0682A46B1
:10314000C117090441EA10410004002303F003FC05
:103150003246002303F0FFFBA060002802DDA0F54B
:10316000803001E000F58030A0600020BFE538B578
:10317000124C94F8241081421DD00025E8B194F837
:103180002500E8B10020FEF7B9FF0020FFF79DF809
:10319000E08CFFF769FA8DF8005060686B460122F9
:1031A00000782321FDF70AFC012084F82400FEF7B3
:1031B000A5FFFFF7F4F8002038BD04E01C01002053
:1031C0004FF0FF30F8E70020FEF798FF207C8DF8E5
:1031D000000060686B46012200782321FDF7EEFBBA
:1031E00084F82450E5E72DE9F047FA4E82468AB08C
:1031F00096F824000F4620B10020FFF7B8FF012504
:1032000000E0002507A8FFF774FC06A8FFF789FC7B
:1032100009A8FFF7A1FC08A8FFF7B8FC96F80A90E8
:1032200096F810800024002239465046FFF718FE19
:1032300010B1641C022CF6DB022C1AD000240122EF
:1032400003A96846FFF70CFE10B1641C022CF6DBE4
:10325000022C0ED003A9384600F0BEF9C7B2694669
:10326000504600F0F0F910F0FF0F4FF0000402D0CC
:1032700002E0002403E001240FB944F00204FF201F
:1032800030727072F0724FF6FF71F181B07230746B
:1032900001203073BDF81C00FFF751FA9DF81800AB
:1032A000FFF71CFABDF82400FFF752F9BDF8200023
:1032B000FFF7DAF94846FEF7AFFF4046FFF71EF981
:1032C00015B10120FFF753FF0AB02046BDE8F08793
:1032D000F8B517000D464FF0FF341FD0BD4EB17A40
:1032E000E1B1010A8DF80010C0B28DF8010041195A
:1032F00070684289914211D8316800786B46097E26
:103300000222FDF75BFB48B93068EAB23B46417DDB
:1033100070680078FDF752FB002800D02046F8BD09
:10332000F8B517000D464FF0FF341FD0A94EB17A03
:10333000E1B1010A8DF80010C0B28DF80100411909
:1033400070684289914211D8316800786B46097ED5
:103350000222FDF733FB48B93068EAB23B46417DB3
:1033600070680078FDF769FB002800D02046F8BDA2
:103370002DE9FF4FDFF85CA2054685B09AF82500DD
:10338000914688464FF0FF3BC0BBB8F1000F35D0E7
:1033900000241FE0281B102800DD102086B208EB57
:1033A00004073A4631462046FFF792FF30BB6A4693
:1033B00031462046FFF7B4FF00BB38463246694627
:1033C00003F06AFB20B16FF0010009B0BDE8F08F97
:1033D000A01984B2AC42DDD34FEA19208DF8100059
:1033E0008DF81190DAF80000544604AB817EDAF8CB
:1033F000040002220078FDF7E1FA08B15846E4E73C
:10340000012084F825000898E0840020DDE7714958
:1034100091F824100170002070474FF0FF30704782
:103420004FF0FF3070472DE9F84F6A4C0F4604F11A
:10343000160115004FF0FF3B8A464FF000094FF090
:10344000010877D0B0F5FF5F01D9FF2605E02028FD
:1034500001D2012601E0C0F3471607B90127282D44
:103460006AD8607DF0B994F8240028B10020FFF7F5
:103470007EFE84F8208001E084F820905046FFF71B
:1034800038FB54481830FFF74CFB52481A30FFF70E
:1034900063FB50481C30FFF779FBA07AA0774D48BA
:1034A000217CC1770020FEF729FE0020FFF783F87A
:1034B0008DF8009020686B46012281786068007862
:1034C000FDF77CFA002837D140208DF800002068F5
:1034D0006B460122C17B60680078FDF76FFA50BB34
:1034E0008DF800608DF8017020686B460222017A29
:1034F00060680078FDF762FAE8B90520FDF743F847
:10350000607A072606EBC0008DF8000020686B4645
:103510000122C17960680078FDF750FA58B920207F
:103520008DF80000012D08D0052D0AD840468DF8F1
:1035300001800DE01DE01FE049E048468DF8019054
:1035400006E0142D01D8022000E003208DF80100D0
:10355000C0B206EB80108DF8010020686B46022295
:10356000817C60680078FDF729FA28B984F8158015
:1035700027E000200A5C3AB3FF2020726072E072FC
:103580004FF6FF71E181A072207484F80C80A07F57
:10359000FEF742FEE08AFFF7D2F8207EFFF79EF8A2
:1035A000608BFEF7D5FFA08BFFF75EF8E07FFEF79C
:1035B000A5FF94F8200010B10120FFF7D8FD84F892
:1035C00015900020BDE8F88F401C0C28D2D3584637
:1035D000F8E700001C0100202DE9FE4F80460F4651
:1035E0000025684600F08FF800246FF00F0AE946C6
:1035F000012658F8240057F82410401A00D54042FC
:1036000005F00AFE514606F046F859F8241011F06C
:10361000FF4F0BD005F002FD4FF07E5105F064FF27
:10362000604920F00040884205DC07E05E4908441C
:103630005E49884202D306FA04F00543641C032C59
:10364000D7DB2846FEE42DE9F84F824658488946E4
:10365000002540686B46032200780D21FDF7EDF947
:1036600008B10720AEE79DF80000002400F01F001D
:103670008DF800009DF801006F4600F01F008DF8E6
:1036800001009DF802004FF0010800F01F008DF8C6
:1036900002005AF8241059F82400081A00D54042B4
:1036A00005F0BAFD6FF00F0105F0F5FF0646385D35
:1036B000E0B1404ADFF800B104E05946104605F099
:1036C0000BFE0246385D401E10F0FF003855F4D165
:1036D0001146304605F0A2FC4FF07E5105F004FF84
:1036E000304920F00040884205DC07E03348304490
:1036F000B0F1D97F02D908FA04F00543641C032C09
:10370000C7DB28465EE72DE9FC47054628486B469F
:10371000042240680D210078FDF78FF910B10720D1
:10372000BDE8FC879DF800001C2101EAD0029DF84D
:103730000300DFF88C90C0F301131A438DF80420C6
:103740009DF80120C0F3810301EAD2021A438DF8EB
:1037500005209DF8022000F0030001EAD201014398
:103760000024184F8DF80610A04601AE305D10B150
:1037700045F8249009E045F824800CE055F8240031
:10378000394605F0A9FD45F82400305D401E10F0D3
:10379000FF003055F2D1641CE4B2032CE6D30020C4
:1037A000BEE70000295C0F3E666666C19A99D900A3
:1037B0001C0100200000C84154E3853F0000E0BE2A
:1037C0007B14AE3E1D5A843FC8234FF48062FE49ED
:1037D00040F6F630FFF7CCBD2DE9FF410446FBA0D3
:1037E00002AB00680290FAA000680390F9A0066896
:1037F000F9A0056804F00300195C8DF80010C4F30B
:10380000C1015A5C8DF80120C4F381129B5C8DF8D4
:10381000023003AB185C8DF80400585C8DF805008D
:10382000985C8DF806006A46032140F22640FFF7B7
:103830004FFD4FF0FF37E0BB01AA032140F22A40C1
:10384000FFF746FDA8BBCDE9006560070BD59DF8E5
:10385000000040F001008DF800009DF8040040F0E9
:1038600001008DF80400A0060BD59DF8010040F082
:1038700001008DF801009DF8050040F001008DF871
:103880000500E0050BD59DF8020040F001008DF821
:1038900002009DF8060040F001008DF806006A461F
:1038A00003214FF48860FFF713FD10B901AA03212B
:1038B00000E004E040F23140FFF70AFD18B138465D
:1038C00004B0BDE8F081C54804810020F8E7F8B5F0
:1038D000C249098901F0030250F822404A0700D585
:1038E0006442C1F3C10250F822308A0600D55B421F
:1038F000C1F3811250F82220C80500D55242B849C0
:1039000084FB0140850045EA947083FB014382FB00
:103910000121950F45EA8105010E8DF80010010C7B
:103920008DF80110010A8DF80210A40F8DF8030024
:1039300044EA83046A4604214FF47470FFF7C8FC1C
:103940004FF0FF3688B9200E8DF80000200C8DF85E
:103950000100200A8DF802008DF803406A46042118
:103960004FF47570FFF7B4FC08B13046F8BD280E6F
:103970008DF80000280C8DF80100280A8DF802004F
:103980008DF803506A4604214FF47670FFF7A0FCCF
:10399000F8BD2DE9FF41044603A8FFF71FF9BDF864
:1039A0000C00420CC3038D48018901F003004D0750
:1039B00054F8200000D54042C1F3C1058E0654F8EA
:1039C000255000D56D42C1F38116C90554F8264033
:1039D00000D56442A0FB0367C11701FB037100FB24
:1039E0000210810041EA9670A5FB0367E91701FB0D
:1039F000037105FB02118D0045EA9671A4FB036774
:103A0000E51705FB037304FB0232930043EA967249
:103A1000030E8DF80030030C8DF80130030A8DF889
:103A200002308DF80300080E8DF80400080C8DF8A4
:103A30000500080A8DF80600100E8DF80800100C1D
:103A40008DF80900100A8DF80A008DF807108DF81E
:103A50000B206A460C214FF42570FFF739FC2FE745
:103A600030B504465FA185B007C98DE807004FF067
:103A7000FF35C82C16D8C820B0FBF4F1491E080A3F
:103A80008DF80C008DF80D1003AA022140F21620CB
:103A9000FFF71EFC30B96A460C2140F6C120FFF743
:103AA00017FC10B1284605B030BD4C488481002079
:103AB000F9E74A4989890180002070472DE9FC41D6
:103AC000054640074FF0FF367CD0B1F5C86F79D876
:103AD000084605F0B9FB464905F0A0FA074601A8DB
:103AE000FFF71FF89DF80400022806D004280DD027
:103AF00008282ED0102865D134E00E21384605F074
:103B0000CAFD05F069FB84B23A4907E00D21384649
:103B100005F0C1FD05F060FB374984B2384605F079
:103B2000DBFB05F059FB210A8DF8001080B28DF8FF
:103B30000140010A8DF802108DF80300E8076C4679
:103B400020D0224602214FF4EA70FFF7C1FBC8BB28
:103B500011E00C21384605F09EFD05F03DFB84B2D6
:103B60002649DBE70B21384605F095FD05F034FBCF
:103B700084B22349D2E7A21C02214FF49270FFF7CE
:103B8000A7FBF8B9A8070DD56A4602214FF4EC70DF
:103B9000FFF79EFBB0B9A21C02214FF49470FFF70F
:103BA00097FB78B9680731D56A4602214FF4EE7069
:103BB000FFF78EFB30B9A21C02214FF49670FFF77D
:103BC00087FB1FE01FE00000649700084CCD6C00ED
:103BD0000CC92C00365676002646660038020020B6
:103BE00009E3CA02FEF2ABC4AAF1DFDFBBAFDFDF3D
:103BF00000004843000040460000C045000040452A
:103C00000000C04410B13046BDE8FC810020FBE755
:103C100008B500218DF80010C10702D030218DF8C1
:103C20000010810705D59DF8001041F00C018DF8BA
:103C30000010400705D59DF8000040F003008DF806
:103C400000006A4601214FF4A470FFF741FB08BD54
:103C500008B560B1042800D90420401E8DF800008A
:103C60006A46012140F24F10FFF732FB08BD0120E8
:103C7000F3E70521B0FBF1F008B5010A8DF800105B
:103C80008DF801006A4602214FF4EF70FFF720FB28
:103C900008BD0521B0FBF1F008B5010A8DF8001050
:103CA0008DF801006A4602214FF4ED70FFF710FB1A
:103CB00008BD4FF47A7290FBF2F008B54843010E4C
:103CC0008DF80010010C8DF80110010A8DF802101A
:103CD0008DF803006A4604214FF4AE70FFF7F8FA3E
:103CE00008BD0521B0FBF1F008B5010A8DF8001000
:103CF0008DF801006A4602214FF4AD70FFF7E8FA33
:103D000008BD0521B0FBF1F008B5010A8DF80010DF
:103D10008DF801006A4602214FF4AC70FFF7D8FA23
:103D200008BD38B504004FF0FF3506D06A460421BF
:103D30004FF45870FFF7F4FA08B1284638BD0098E0
:103D40009DF8031000BA20F0FF0008432060002017
:103D500038BD08B5010E8DF80010010C8DF801106A
:103D6000010A8DF802108DF803006A4604214FF411
:103D70005870FFF7ADFA08BD38B504004FF0FF35B5
:103D800006D06A4604214FF47170FFF7C9FA08B1F2
:103D9000284638BD009800BA20F0FF019DF80300C6
:103DA000014301EB810080002060002038BD142118
:103DB000B0FBF1F008B5010E8DF80010010C8DF884
:103DC0000110010A8DF802108DF803006A460421E3
:103DD0004FF47170FFF77CFA08BD08B560B1202080
:103DE0008DF8000028208DF8010030208DF80200A9
:103DF00038208DF8030004E0A3220421684602F075
:103E000077FE6A46042140F69E20FFF761FAFEF72E
:103E1000C6FA08BD08B560B1C0208DF80000C22008
:103E20008DF80100C4208DF80200C6208DF8030033
:103E300004E08B220421684602F05AFE6A460421FF
:103E400040F69820FFF744FAFEF7A9FA08BD0EB530
:103E50004FF4976308B1E0A000E0E2A007C88DE846
:103E600007006A4609211846FFF732FA0EBD3EB533
:103E7000044602208DF80000CA208DF80100E320DE
:103E80008DF8020009208DF803006A46042168209D
:103E9000FFF71EFAA3208DF80000610609D5C021A6
:103EA0008DF80110C8218DF80210C2218DF8031081
:103EB00005E08DF801008DF802008DF8030014F480
:103EC000C07F09D0C4218DF80410CC218DF80510D5
:103ED000C6218DF8061005E08DF804008DF8050068
:103EE0008DF806008DF808008DF807008DF80900A0
:103EF0006A460A2140F6A720FFF7EAF9A0074FF02B
:103F0000D80503D020208DF8000001E08DF8005086
:103F10006A46012140F6B620FFF7DAF9A00601D57E
:103F2000012000E00020FFF792FF14F4C07F1ED0B4
:103F3000E0050AD5B2208DF800008B208DF8010035
:103F4000B6208DF802009B2009E0B0208DF800001B
:103F500080208DF80100B4208DF8020090208DF8AB
:103F600003006A46042140F6A220FFF7B1F9E007FA
:103F70004FF40B6323D0F8208DF800006A4601212E
:103F80001846FFF7A5F9FA210720FFF797FD07204C
:103F9000FFF73EFE0120FFF75BFE6420FFF769FE9E
:103FA0004FF4FA70FFF775FEC8219148FFF781FEC4
:103FB0002820FFF796FE0A20FFF7A3FE06E08DF803
:103FC00000506A4601211846FFF782F9A00703D581
:103FD000D9208DF8000001E08DF800506A460121DB
:103FE00040F23D70FFF774F9600701D5012000E051
:103FF0000020FFF70FFFE00601D5012000E00020C0
:10400000FFF7EBFE7B4D44F008006881FEF7C7F92F
:104010000020A873600601D50620A87314F4C07FA1
:1040200002D0A87B801DA87314F0140F02D0A87BC7
:104030001030A873A00702D0A87B001DA873002031
:104040003EBD6C49498901800020704700B56AA1D6
:1040500087B00EC98DE80E006AA10DF10C0C0EC9D7
:104060008CE80E0040F68223012807D0022803D0F6
:104070004FF0FF3007B000BD6A4600E003AA0B21F5
:104080001846FFF725F9F5E72DE9F04F89B01646F8
:10409000DDE912520024DFF85C810F4681462C8056
:1040A000A24698F80E006946FEF790FE4FF0FF3BDF
:1040B00018B1584609B0BDE8F08FB8F80A0010F002
:1040C000140F3CD0009909BA21F0FF0C9DF80310A1
:1040D0004CEA010CC6F800C0019909BA21F0FF03AF
:1040E0009DF807100B43736002999DF80B2009BAE5
:1040F00021F0FF011143B160039A9DF80F4012BAFD
:1041000022F0FF022243F2604FEA2C4609141B14EE
:1041100012147643494303FB036302FB0211194463
:104120001024A1F17061B1F1007F04D9FEF737F9D5
:10413000A5F800A0BDE7298841F4807129804106D7
:104140006A460ED51119A41D0B885BBA3B804B88BB
:104150005BBA7B80898849BAB980298841F0080117
:10416000298010F4C07F11D01119A41D0B885BBAEF
:10417000A9F800304B885BBAA9F80230898849BA9F
:10418000A9F80410298841F070012980800718D00F
:104190001444E07800F0C00500F03F016078C007EB
:1041A00007D0C80801F00701D8F80020491C02B167
:1041B00090476078000704D5D8F8041009B1A80921
:1041C0008847002076E70B490860002070470949BE
:1041D0004860002070470000B8AAB38DB4980D3530
:1041E0005D000000B8AAAAAAB088C3C5C700000035
:1041F00009E3CA0238020020D8B1B9F38BA391B603
:1042000009B4D900DAB1B9F38BA391B6DAB4DA0004
:1042100090F90010002902DD4FF00000704702DA2B
:104220004FF00400704790F90110002902DD4FF0B3
:104230000100704702DA4FF00500704790F9020064
:10424000002802DD4FF00200704702DA4FF006004E
:1042500070474FF0070070473EB50121052000F080
:10426000BCFF1024ADF8084004208DF80B0003209B
:104270008DF80A0002A98D4800F0C7FD0421002036
:1042800000F077FE00208DF804000C208DF805006A
:1042900001208DF806000094684600F0F9FC10201B
:1042A00000F054FD3EBD70B5FEF77DFA0028FBD14D
:1042B0007FA0FCF79FFE7820FDF7AEFF00284DD0D1
:1042C00084A0FCF797FE7820FEF718F9002847D065
:1042D0008BA0FCF78FFEC820FEF7C6F9002841D05E
:1042E00093A0FCF787FEFFF76FFA00283CD099A057
:1042F000FCF780FEA6480446FFF78AFF0546E01C4F
:10430000FFF786FF45EAC005A01DFFF781FF45EADC
:10431000801080B2FFF760FA002827D09DA0FCF73C
:1043200069FE40F27310FFF7A2FD002820D0A5A07F
:10433000FCF760FEC820FFF793FB00281AD0ADA061
:10434000FCF758FE00F0C5FB0120FEF710FF002827
:1043500012D0B3A0BDE87040FCF74CBEBBA0B0E7E4
:10436000C2A0B6E7CAA0BCE7D3A0C1E7DFA0D6E7EA
:10437000E8A0DDE7F0A0E3E7F8A0EBE72DE9FC5FBC
:104380008349FF4A5C39881CCDE9000100F14A03EA
:1043900056314E30FFF778FE7D4CDFF8E8A35C3CE9
:1043A000DFF8E4936088C0057ED5F54D286804F0F9
:1043B00033FF6FF01D0105F06EF90746E060686895
:1043C00004F02AFF6FF01D0105F065F980462061B9
:1043D000A86804F021FF6FF01D0105F05CF90646A6
:1043E0006061E86804F018FF6FF01D0105F053F9F3
:1043F0000546A0610121384605F04DF9314604F02B
:104400006BFF06460121404605F045F9294604F0B8
:1044100063FF314605F068F804F060FD03F07AFCB4
:104420004A46DA4B04F080FA03F0B8FFE06120F06E
:104430000040514605F01CF802D2A06AE06101E09C
:10444000E069A06260690121054605F024F9814612
:10445000294604F041FF054620694FF040410746D8
:1044600004F03AFF394604F037FF294605F03CF8DE
:104470004FF07E5104F05EFD04F030FD05460E461F
:104480000121E06805F007F9394604F025FF0746E9
:104490004846A16904F020FF394604F04BFD04F0C2
:1044A0001DFD2A46334673E111E300000008014078
:1044B0006D707520696E697469616C697A6174697F
:1044C0006F6E20636F6D706C6574652E2E2E2E2EB0
:1044D0002E0A20006D70755F7365745F73656E736F
:1044E0006F7220636F6D65206163726F73732065F7
:1044F00072726F72202E2E2E2E2E2E0A00000000B9
:104500006D70755F636F6E6669677572655F66690A
:10451000666F20636F6D65206163726F73732065D2
:1045200072726F72202E2E2E2E2E2E0A0000000088
:104530006D70755F7365745F73616D706C655F72CC
:10454000617465206572726F72202E2E2E2E2E2EB3
:104550000A000000646D705F6C6F61645F6D6F7462
:10456000696F6E5F6472697665725F6669726D7796
:1045700061726520636F6D65206163726F73732074
:104580006572726F72202E2E2E2E2E2E0A000000C3
:10459000A4010020646D705F7365745F6F7269655C
:1045A0006E746174696F6E20636F6D6520616372F4
:1045B0006F7373206572726F72202E2E2E2E2E2E28
:1045C0000A000000646D705F656E61626C655F6615
:1045D00065617475726520636F6D65206163726FCC
:1045E0007373206572726F72202E2E2E2E2E2E0A5D
:1045F00000000000646D705F7365745F6669666FCC
:104600005F7261746520636F6D65206163726F73A3
:1046100073206572726F72202E2E2E2E2E2E0A009F
:104620006D70755F7365745F646D705F73746174D2
:104630006520636F6D65206163726F7373206572AF
:10464000726F72202E2E2E2E2E2E0A006D70755F28
:104650007365745F73656E736F7220636F6D706CDA
:10466000657465202E2E2E2E2E2E0A006D70755F1D
:10467000636F6E6669677572655F6669666F2063F2
:104680006F6D706C657465202E2E2E2E2E2E0A00F6
:104690006D70755F7365745F73616D706C655F726B
:1046A00061746520636F6D706C657465202E2E2EAD
:1046B0002E2E2E0A00000000646D705F6C6F616426
:1046C0005F6D6F74696F6E5F6472697665725F6645
:1046D00069726D7761726520636F6D706C6574656A
:1046E000202E2E2E2E2E2E0A00000000646D705FEC
:1046F0007365745F6F7269656E746174696F6E2043
:10470000636F6D706C657465202E2E2E2E2E2E0A12
:1047100000000000646D705F656E61626C655F66CD
:1047200065617475726520636F6D706C657465206A
:104730002E2E2E2E2E2E0A00646D705F7365745F10
:104740006669666F5F7261746520636F6D706C651A
:104750007465202E2E2E2E2E2E0A00006D70755F91
:104760007365745F646D705F737461746520636FEB
:104770006D706C657465202E2E2E2E2E2E0A000074
:10478000480200200000B442F8C1631ADCA54C4086
:1047900003F008FDED4AEE4B04F0C6F803F0FEFD11
:1047A000206220F00040514604F062FE02D2E06A2E
:1047B000206201E0206AE062A1698A46504604F066
:1047C0008BFD616907468946484604F085FD2169ED
:1047D00006468B46584604F07FFDE168054688464C
:1047E000404604F079FD294604F0A4FB314604F06C
:1047F0007BFE394604F078FE04F070FB05460E4659
:104800005146404604F068FD07464946584604F0C4
:1048100063FD394604F08EFB012104F03CFF04F0F7
:104820005DFB2A46334603F0BDFCC84AC94B04F081
:104830007BF803F0B3FDC84E606220F000403146C3
:1048400004F016FE02D2206B606201E0606A206311
:10485000C24C6168206A04F06DFBC14DE860A1683C
:10486000E06904F067FB28613146606A04F062FB8E
:1048700068615034B4F9000004F003F8B94E4FF009
:10488000C0452A46334603F077FE07468846B4F90A
:10489000020003F0F6FF2A46334603F06DFE82461F
:1048A0008B46B4F9040003F0ECFF2A46334603F0CC
:1048B00063FEAB4E0025042481469C3E009106EB2E
:1048C000840050F8041C46F82410284604F032FBFB
:1048D000641E054614F0FF04F1D13846414603F04A
:1048E0005DFD01463060284604F024FB9E4904F03B
:1048F00095FB9A4E9A4F002504248046883F7063AA
:1049000007EB840050F8041C47F82410284604F0F4
:1049100011FB641E054614F0FF04F1D150465946C0
:1049200003F03CFD01463860284604F003FBDFF845
:1049300038A2514604F072FB894F00250424743FCD
:10494000B06307EB840050F8041C47F82410284695
:1049500004F0F0FA641E054614F0FF04F1D1484655
:10496000009903F01BFD01463860284604F0E2FA86
:10497000514604F053FB7A4F00250724B246603FAE
:10498000F06307EB840050F8041C47F82410284615
:1049900004F0D0FA641E054614F0FF04F1D16F4E06
:1049A0005636B6F9000004F037FC01463860284658
:1049B00004F0C0FA6FF0020B594604F06CFE04F0EC
:1049C000EFFB674F002507243080403F07EB840052
:1049D00050F8041C47F82410284604F0ABFA641E73
:1049E000054614F0FF04F1D1B1463446B6F9020091
:1049F00004F012FC01463860284604F09BFA594640
:104A000004F049FE04F0CCFB6080554E00250724DD
:104A1000203E06EB840050F8041C46F8241028467B
:104A200004F088FA641E514F054614F0FF04F0D1DB
:104A30004C46B9F9040004F0EFFB0146306028460B
:104A400004F078FA594604F026FE04F0A9FBA08091
:104A5000554628F00040394604F00AFD02D2286C81
:104A6000686301E0686B2864A86B394620F0004059
:104A700004F0FEFC02D2686CA86301E0A86B6864D5
:104A8000E86B394620F0004004F0F2FC02D2A86C3A
:104A9000E86301E0E86BA8643148696B0160A96BC9
:104AA0004160E96B8160B4F9000004F0B5FB304966
:104AB00004F01AFD04F074FB2080B4F9020004F045
:104AC000ABFB2C4904F010FD04F06AFB6080BDE8EC
:104AD000FC9F10B588B002A905A8FEF784FB072843
:104AE00032D16846FEF764F8059804F095FB00990A
:104AF0000C4604F0F1FB04F053FB0590069804F01B
:104B00008BFB214604F0E8FB04F04AFB0690079873
:104B100004F082FB214604F0DFFB04F041FB079028
:104B200005A8FEF7D4FE01A8FEF758F8BDF804006A
:104B300002994143029103994143039104994143EE
:104B400002A80491FEF725FF08B010BDF8C1631A52
:104B5000DCA54CC0DCA54C400000344348010020DB
:104B6000F4020020666630400000A04000007A4455
:104B70000000F041000004430B4880470B48004709
:104B8000FEE70B4800470A48004709480047084825
:104B90000047FEE7FEE7FEE7FEE7FEE705480649B9
:104BA000064A074B704700009D680008ED000008AA
:104BB0003D020008700300207009002070050020ED
:104BC000700500202849084328490860704730B51F
:104BD0000F23C27801780125F2B1244A126801F14D
:104BE000E02102F4E062C2F5E062120AC2F10404BC
:104BF000D3404278A24084781C401443220181F8BB
:104C00000024007800F01F018D404009800000F171
:104C1000E020C0F8005130BD01F01F008540480978
:104C2000800000F1E020C0F8805130BD104A1140F2
:104C300001430E48001F016070470C4A121D0029F5
:104C4000116801D0014300E08143116070474FF0CB
:104C5000E0210428086903D020F0040008617047AF
:104C600040F00400FAE700000000FA050CED00E057
:104C700080FFFF1F374900200860091D0860091DDB
:104C80000860091D086033493348143108607047D3
:104C900030B5304A8379016853B313688B4313608E
:104CA000111D0B680468A3430B60017911440B6864
:104CB000046823430B60274B083319680468A14339
:104CC00019601C1D21680568A943216041791029DC
:104CD00005D011440A68006802430A6030BD1968B3
:104CE000026811431960216800680143216030BDEA
:104CF0000079104402688A43026030BD00210160DF
:104D000001710C22427181717047124910310A6899
:104D100002430A60704701460E4A002014321268AE
:104D20000A4200D0012070470A49143108607047D8
:104D3000084A014600201268064B0A4014331B68DB
:104D40000B4202D0002A00D00120704701491431E3
:104D50000860704700040140FFFF0F008F4910B545
:104D6000884206D10121042000F049FA00210420E4
:104D70003BE08B49884206D10121082000F03FFA30
:104D80000021082031E08749884206D10121102006
:104D900000F035FA0021102027E08349884206D12F
:104DA0000121202000F02BFA002120201DE07F4966
:104DB000884206D10121402000F021FA0021402044
:104DC00013E07B49884206D10121802000F017FAC8
:104DD0000021802009E0774988420AD18415012109
:104DE000204600F00CFA00212046BDE8104000F0FB
:104DF00006BA10BD10B50121084600F000FA0021E6
:104E0000BDE81040012000F0FAB9F0B5CC780022DE
:104E100004F00F03E40601D58C7823430C784FF09F
:104E20000F0C14F0FF0F4FF0010E1BD005680E8819
:104E30000EFA02F42640A64210D196000CFA06F7AC
:104E400025EA070703FA06F5CE783D43282E02D05F
:104E5000482E02D002E0446100E00461521C082A9E
:104E6000E5D305600A88FF2A1CD94468002202F1B4
:104E700008060EFA06F50E882E40AE420ED19600B8
:104E80000CFA06F7BC4303FA06F7CE783C43282E0B
:104E900000D14561CE78482E00D10561521C082A08
:104EA000E5D34460F0BD4FF6FF71018002218170AF
:104EB0000421C17070470246002092680A4200D067
:104EC00001207047806880B2704702460020D26897
:104ED0000A4200D001207047C06880B2704701616B
:104EE0007047416170470AB1016170474161704785
:104EF000C160704741F48032826181618261816961
:104F0000806970472C4B10B51A684FF680742240A8
:104F100042EA00100843186010BD2849C861704774
:104F2000F0B5254C002801DAE36900E06368450D1F
:104F30002E0185B2C0F30157B540C0F30342032FE1
:104F400005D0C6020AD503269640B34307E023F0F6
:104F50007062636823F07063636002E0AB4343F008
:104F6000706201B12A43002801DAE261F0BD62609B
:104F7000F0BD10B58A0721F003040F49120F214438
:104F80000F238C6893409C438C608B689040034354
:104F90008B6010BD0949C1F8DC0070470008014072
:104FA000000C0140001001400014014000180140B5
:104FB000001C014000200140000001400000204290
:104FC000A548016841F0010101604168A34A114010
:104FD00041600168A24A11400160016821F480210A
:104FE0000160416821F4FE0141604FF41F018160BE
:104FF000704799490A6822F480320A600A6822F4EC
:1050000080220A60B0F5803F07D0B0F5802F03D131
:10501000086840F4A02008607047086840F48030B9
:10502000F9E70346002059098B4A01290AD00229D1
:105030000AD0516A03F01F02012393400B4200D0B3
:10504000012070471168F5E7116AF3E718B50020F1
:105050004FF4A06400903120FFF7E3FF0099491C52
:105060000091A14201D00028F5D03120FFF7D9FFEF
:10507000002800D0012018BD774A116821F0F801FE
:1050800041EAC00010607047764908607047724B73
:105090005A68084322F47C121043586070477149E3
:1050A000086670476C4A516821F003010143516062
:1050B00070476948406800F00C007047664A5168C4
:1050C00021F0F001014351607047634A516821F4B7
:1050D000E0610143516070475F4A516821F46051BB
:1050E00041EAC000506070475B4A0029517A01D004
:1050F000014300E08143517270475A49C1F8D8001A
:105100007047554A516821F440410143516070474E
:105110005149002281F8202081F82020012802D066
:10512000042802D1052081F8200070474E4908600C
:10513000704749490A6A02430A6270474A4944393A
:105140000860704730B5444A5168484B11F00C0173
:1051500003D0042901D0082901D0036012E051686E
:10516000536801F470114FF0020413F4803F04EB14
:10517000914102D053689B0301D53D4B00E03B4B6E
:105180005943016051680F2303EA1111394B5C5CEC
:105190000168E14041605468072505EA14241C5D5C
:1051A00021FA04F48460546805EAD4241B5DD940D4
:1051B000C1605268032303EA92322E4B1B1F9A5C94
:1051C000B1FBF2F1016130BD234A0029516901D0E0
:1051D000014300E08143516170471F4A00299169F2
:1051E00001D0014300E08143916170471A4A0029D0
:1051F000D16901D0014300E08143D1617047164A73
:105200000029D16801D0014300E08143D16070479B
:10521000114A0029116901D0014300E08143116165
:10522000704711494039086070470E49C86470479B
:105230000949C87170470848416A41F0807141626C
:105240007047054A0146002092680A4200D00120BA
:105250007047014988727047001002400000FFF853
:10526000FFFFF6FE000042428004424200127A0034
:1052700000093D00B2010020F94910B5884202D171
:105280000121C41486E0B0F1804F09D0F54988426D
:105290000DD101210220FFF7BBFF0021022064E0B5
:1052A00001210846FFF7B4FF002101205DE0EE492F
:1052B000884206D101210420FFF7AAFF0021042023
:1052C00053E0EA49884206D101210820FFF7A0FFF8
:1052D0000021082049E0E649884206D1012110203A
:1052E000FFF796FF002110203FE0E249884206D1F7
:1052F00001212020FFF78CFF0021202035E0DE492E
:10530000884202D10121441444E0DC49884202D1A0
:105310000121CC043EE0DA49884202D101210C058A
:1053200038E0D849884202D101214C0532E0D64903
:10533000884206D101214020FFF76AFF002140206A
:1053400013E0D249884206D101218020FFF760FF97
:105350000021802009E0CE4988420AD1841501212C
:105360002046FFF755FF00212046BDE81040FFF71B
:105370004FBFC849884202D101210C040AE0C64946
:10538000884202D101214C0404E0C44988420AD178
:1053900001218C042046FFF732FF2046BDE8104073
:1053A0000021FFF72CBF10BD30B50288AC4CB24DC8
:1053B000A0420DD0A8420BD0B0F1804F08D0A94B2D
:1053C000984205D0A84B984202D0A84B984203D1EE
:1053D00022F070034A881A43A54B984206D0A54B89
:1053E000984203D022F44073CA881A4302808A8804
:1053F00082850A880285A0420AD0A84208D0A54A20
:10540000904205D0A44A904202D0A44A904201D1D1
:10541000097A01860121818230BD30B5028C22F0EB
:1054200001020284028C8388048B22F0020224F0A1
:1054300073050C882C430D8915434A882A43884DEF
:10544000A8420BD08C4DA84208D0924DA84205D05E
:10545000914DA84202D0914DA8420DD122F00805ED
:105460004A8923F440732A4322F004058A882A4398
:105470008D891D43CB892B4383800483C988818612
:10548000028430BD70B5028C22F010020284028CBE
:105490008388048B0D8824F4E6464FF6FF7404EAF3
:1054A000052535430E8922F0200204EA061616432C
:1054B0004A8804EA02123243694EB04202D06E4E6C
:1054C000B04215D122F080064A8923F4406304EAF1
:1054D0000212324322F040068A8804EA0212324362
:1054E0008E8904EA86061E43CB8904EA830333438C
:1054F00083800583C9880187028470BD70B5028CE2
:1055000022F480720284028C8388848B0D8824F0BC
:10551000730425430E894FF6FF7422F4007204EAE7
:10552000062616434A8804EA022232434C4EB04211
:1055300002D0514EB04215D122F400664A8923F4BC
:10554000405304EA0222324322F480668A8804EA45
:10555000022232438E8904EA06161E43CB8904EAEE
:105560000313334383808583C9888187028470BD98
:1055700070B5028C22F480520284058C8288838B61
:105580000C8823F4E6464FF6FF7303EA0424344301
:1055900025F400560D8903EA053535434E8803EAA4
:1055A00006362E432E4DA84202D0334DA84205D1D7
:1055B00022F480458A8903EA82122A438280848306
:1055C000C988A0F84010068470BD828B22F4406226
:1055D0008283828B4FF6FF7303EA01210A438283A1
:1055E0007047828B22F00C028283828B0A43828373
:1055F0007047028B22F440620283028B4FF6FF73E6
:1056000003EA01210A4302837047F0B5048C24F0B9
:1056100010040484078B048C4FF6FF7527F473473E
:1056200005EA03333B4305EA02221A430C4B05EA21
:10563000011698420ED0104B98420BD0B0F1804F1B
:1056400008D0084B984205D0074B984202D0074B30
:10565000984225D124F02001314341F0100124E08B
:10566000002C01400004004000080040000C0040F5
:10567000001000400014004000340140004C014084
:10568000005001400054014000180040001C004040
:10569000002000400040014000440140004801401B
:1056A00024F0A0030B4343F0100102830184F0BDFA
:1056B000028B22F00C020283028B0A4302837047A2
:1056C00070B5048C24F001040484058B048C4FF61F
:1056D000FF7606EA0313134325F0F305F84A2B433C
:1056E00090420ED0F74A90420BD0B0F1804F08D0D4
:1056F000F54A904205D0F54A904202D0F44A9042D1
:1057000002D124F0020201E024F00A020A4342F02E
:1057100001010383018470BD2DE9F84F0D46044655
:105720000888E74FDFF89CC3DFF89C83DFF89C9381
:105730004988AA882B894FF0804A48B304282FD083
:105740004FF6FF760828934632D0208C9E4620F4F0
:1057500080502084A38B208C06EA0132009223F42F
:10576000734306EA0B221A4306EA0E331343BC4284
:105770000AD0644508D0544506D0444504D04C4571
:1057800002D0D34A944242D120F40050009940E024
:105790002046FFF795FFE9882046BDE8F84F87E7E8
:1057A0002046FFF732FFE9882046BDE8F84F20E7A2
:1057B000208C20F480702084B4F81CE0208C06EA51
:1057C000031306EA01222EF0F30E43EA0B0343EA29
:1057D0000E030092BC420AD0644508D0544506D05E
:1057E000444504D04C4502D0B94A944203D120F438
:1057F0000070009901E020F42060084340F48070BC
:10580000A3832084E9882046BDE8F84FE9E620F428
:105810000240084340F48050A3832084E988204656
:10582000BDE8F84FD1E62DE9F0410C460026498845
:105830000746012501B90226A288012A00D10225C6
:10584000208823890028384610D0FFF7DEFEE18843
:105850003846FFF7CEFE23892A4631463846FFF701
:105860002FFFE1883846BDE8F04121E7FFF728FF28
:10587000E1883846FFF71CFF23892A46314638461F
:10588000FFF7C3FEE1883846BDE8F041B1E610B548
:105890000A884B88CC881A438B8823431A430B8988
:1058A0001A434B8989891A430A43A0F8442010BD42
:1058B0004FF6FF71818000210180C180418001721B
:1058C00070470021018041808180C1800181418138
:1058D0008181C18170470021018041800122828045
:1058E000C180018170470021018041808180C18099
:1058F00001814181818170470029018802D041F0F6
:10590000010101E021F0010101807047002930F818
:10591000441F02D041F4004101E0C1F30E010180B7
:105920007047002A828901D00A4300E08A438281BD
:105930007047818270471143A0F848107047002AD1
:10594000828901D00A4300E08A438281704701893D
:1059500021F0070101817047028922F070020A4399
:105960000281704700B50346FFF7F6FF188940F043
:105970000700188100BD70B516460D466029044623
:105980004FF0010231460AD0FFF79AFE2946204621
:10599000FFF7E2FF208940F00700208170BDFFF78C
:1059A00034FEF3E730B504894FF6FF7505EA0323AB
:1059B0001343E4B20B432343038130BD10B50446C7
:1059C000FFF7F0FF208940F07700208110BD10B56F
:1059D0000446FFF7E7FF208940F48040208110BD96
:1059E000018582827047028822F070020A43028099
:1059F000704770B50589048B068C25F007050D43AB
:105A00004FF6FC410C4040F201110C434FF6FF7180
:105A100001EA031126F02206114331430581048374
:105A2000018470BD028B22F070020A43028370472A
:105A3000028B4FF6FF7322F4E04203EA0121114387
:105A400001837047828B22F070020A438283704781
:105A5000828B4FF6FF7322F4E04203EA01211143E7
:105A6000818370470029018802D041F0800101E064
:105A700021F08001018070470029818802D041F027
:105A8000040101E021F00401818070470029818830
:105A900002D041F0080101E021F008018180704747
:105AA0000029818802D041F0010101E021F00101CB
:105AB00081807047028B22F008020A4302837047FC
:105AC000002C014000340140000400400008004068
:105AD000000C0040028B4FF6FF7322F4006203EAD1
