:020000040800F2
:10000000C00600209D0D0008390C00083B0C0008BC
:1000100000000000000000000000000000000000E0
:100020000000000000000000000000003D0C00087F
:1000300000000000000000003F0C0008410C000818
:10004000CD0D0008CD0D0008CD0D0008CD0D000828
:10005000CD0D0008CD0D0008CD0D0008CD0D000818
:10006000CD0D0008CD0D0008CD0D0008CD0D000808
:10007000CD0D0008CD0D0008CD0D0008CD0D0008F8
:10008000CD0D0008CD0D000800000000CD0D0008CA
:10009000CD0D0008CD0D0008CD0D0008CD0D0008D8
:1000A000CD0D0008CD0D0008CD0D0008CD0D0008C8
:1000B000CD0D000800000000CD0D0008000000007C
:1000C00000F002F800F03EF80CA030C80838241800
:1000D0002D18A246671EAB4654465D46AC4201D180
:1000E00000F030F87E460F3E0FCCB6460126334274
:1000F00000D0FB1AA246AB4633431847981E0000B7
:10010000B81E0000103A02D378C878C1FAD8520756
:1001100001D330C830C101D504680C6070470000BD
:100120000023002400250026103A01D378C1FBD813
:10013000520700D330C100D50B6070471FB51FBDFB
:1001400010B510BD01F0F2FE1146FFF7F7FF00F009
:1001500002F901F00AFF03B4FFF7F2FF03BC01F05C
:1001600011FF00007E4D7F4F0024A52028703868C5
:10017000401C38606870632801D30020386000F0AC
:100180005CF9794E308880083080A870000AE870E9
:1001900000F008F93088800830802871000A687102
:1001A00000F097F9318801200003401A0004800C08
:1001B0003080A871000AE87100F0D6F930888021FB
:1001C000800830802872000A6872684801F005FCD7
:1001D000002836D001218902644801F0FEFB002886
:1001E00031D00020A87200F055FA30880009308024
:1001F000287500F004FA308800093080687500F036
:1002000094FA308801F03BFD594A5A4B01F03AFD0F
:10021000012201F05BFE0B22D24301F057FE01F0F8
:10022000C7FC554988422DDA0C21204601F010FC0C
:1002300000290AD01621204601F00AFC002910D01E
:100240001AE00120CEE70220CCE70121C90247488D
:1002500001F0D5FB01210920C903C00601F0CFFB45
:100260000AE00121C902414801F0CBFB012109202C
:10027000C903C00601F0C5FB4048641C84420CD988
:1002800000240AE00121C902384801F0BAFB01212B
:100290000920C903C00601F0B4FB00207860295C86
:1002A0007A68401C8918C0B279601E28F7D3B888D4
:1002B000A877000A2D4EE8774021304601F08DFBEB
:1002C0000028F9D100F0F4FB2021254800F07EFB46
:1002D0004BE77047F8B500F077FA00F092FA012585
:1002E000224EED022946304601F089FB2F010920FC
:1002F0003946C00601F083FB7D20C00000F040F8C5
:1003000000F00EFC00F042FB01280ED029463046DA
:1003100001F075FBC82000F033F82946304601F0A3
:1003200070FBC82000F02CF8F0E700F064FB00F050
:10033000D1FB0D4C00F081F82088800820806428D3
:10034000F8D22946304601F05CFB09203946C00648
:1003500001F057FBF8BDFFF7BDFFFFF703FF704744
:100360003C000020000000200C0000200004004899
:100370006666666666660A40CDCC6C4040420F00F9
:100380004B23074A1B0105E013601168491E1160E9
:10039000491CFAD10146401E80B20029F4D17047B1
:1003A0000800002070B5012188B0480401F0CDF8A4
:1003B0000121480201F0D2F8012603206946069681
:1003C00008770024CC77092006A9C00601F0B7FA07
:1003D000FB4D284600F01CFD684600F03AFD6946DA
:1003E00000940E71029404942846059400F01EFDBA
:1003F00007220121284600F09BFD284600F0BBFDA6
:100400000121284600F02DFD0121284600F0F1FDD4
:100410000028F9D00120FFF7B3FF284600F0C7FD00
:100420000421284600F0E5FD0028F9D0284600F018
:10043000C3FDE449088008B070BD30B5012189B022
:10044000480401F082F80121480201F087F80220F7
:1004500006900320694608770024CC77092006A976
:10046000C00601F06CFAD64D284600F0D1FC684673
:1004700000F0EFFC01206946009408710294049496
:100480002846059400F0D2FC07220221284600F0FD
:100490004FFD284600F06FFD0121284600F0E1FCE9
:1004A0000121284600F0A5FD0028F9D00120FFF722
:1004B00067FF284600F07BFD0421284600F099FDE7
:1004C0000028F9D0284600F077FDBE49088009B021
:1004D00030BD30B5012189B0480401F036F8012162
:1004E000480201F03BF81020069003206946087787
:1004F0000024CC77092006A9C00601F020FAB04DEF
:10050000284600F085FC684600F0A3FC01206946FF
:1005100000940871029404942846059400F086FC27
:1005200007221021284600F003FD284600F023FD95
:100530000121284600F095FC0121284600F059FDD4
:100540000028F9D00120FFF71BFF284600F02FFDFF
:100550000421284600F04DFD0028F9D0284600F07F
:100560002BFD98490880B2E730B5012189B04804D5
:1005700000F0EBFF0121480200F0F0FF4020069060
:100580000320694608770024CC77092006A9C00615
:1005900001F0D5F98A4D284600F03AFC684600F093
:1005A00058FC01206946009408710294049428467E
:1005B000059400F03BFC07224021284600F0B8FCDF
:1005C000284600F0D8FC0121284600F04AFC012111
:1005D000284600F00EFD0028F9D00120FFF7D0FEDC
:1005E000284600F0E4FC0421284600F002FD002823
:1005F000F9D0284600F0E0FC7249088067E730B582
:10060000012189B0480400F0A0FF0121480200F058
:10061000A5FF042006900320694608770024CC77C4
:10062000092006A9C00601F08AF9654D284600F0A8
:10063000EFFB684600F00DFC01206946009408714C
:10064000029404942846059400F0F0FB072204214C
:10065000284600F06DFC284600F08DFC012128465C
:1006600000F0FFFB0121284600F0C3FC0028F9D070
:100670000120FFF785FE284600F099FC042128465A
:1006800000F0B7FC0028F9D0284600F095FC4D4951
:1006900008801CE730B5012189B0480400F055FFFF
:1006A0000121480200F05AFF082006900320694605
:1006B00008770024CC77092006A9C00601F03FF98D
:1006C0003F4D284600F0A4FB684600F0C2FB012025
:1006D000694600940871029404942846059400F039
:1006E000A5FB07220821284600F022FC284600F03E
:1006F00042FC0121284600F0B4FB0121284600F00D
:1007000078FC0028F9D00120FFF73AFE284600F0D7
:100710004EFC0421284600F06CFC0028F9D0284645
:1007200000F04AFC27490880D1E630B5012189B0A4
:10073000480400F00AFF0121480200F00FFF2020CA
:1007400006900320694608770024CC77092006A983
:10075000C00601F0F4F81A4D284600F059FB68462F
:1007600000F077FB0120694600940871029404941C
:100770002846059400F05AFB07222021284600F065
:10078000D7FB284600F0F7FB0121284600F069FB63
:100790000121284600F02DFC0028F9D00120FFF7A8
:1007A000EFFD284600F003FC0421284600F021FC60
:1007B0000028F9D0284600F0FFFB0249088086E6B1
:1007C000002401400C0000201CB50320012140043E
:1007D00000F0BBFE01206A461071002191710221D8
:1007E000D1715071C002009069462F4801F0A7F8FE
:1007F0000120C003009009206946C00601F09FF85F
:100800001CBD7CB511200121800400F09EFE00215A
:100810006A46117101209071D1715071224D80246E
:1008200069462846009401F08AF8E1000091694683
:10083000284601F084F840201C4D00906946284667
:1008400001F07DF869462846009401F078F87CBDF7
:10085000F3B50125ED022E01092781B00446FF06FC
:1008600013E001F0CEF83146384601F0CAF802989C
:10087000FFF786FD29460C4801F0C1F8314638469D
:1008800001F0BDF80298FFF77BFD2046641E0028AA
:100890000548E4B22946E4D101F0B3F831463846C0
:1008A00001F0AFF8FEBD000000040048001400484D
:1008B000F8B5012409250E460746E402ED06214657
:1008C000284601F09EF8384600F09BF9074630466E
:1008D00000F097F92146284601F091F83846F8BD16
:1008E00070B5012409250646E402ED062146284696
:1008F00001F087F8304600F084F9002000F081F91B
:1009000006462146284601F07AF8304670BDF8B513
:100910000E460446012109201546C902C00601F011
:1009200070F8204600F06DF90746002405E000202D
:1009300000F067F93055641CE4B2AC42F7D30121F2
:100940000920C902C00601F05AF83846F8BDF8B5CA
:100950000E460446012109201546C902C00601F0D1
:1009600050F8204600F04DF90746002404E0305DC1
:1009700000F047F9641CE4B2AC42F8D3012109202D
:10098000C902C00601F03BF83846F8BD1CB560A0AE
:1009900003C801910090052269463020FFF7D7FF78
:1009A00000206946087005221020FFF7B0FF0020E4
:1009B00069460A5CA52A03D1401CC0B20528F8D3B9
:1009C000052801D000201CBD01201CBDF8B5FF2466
:1009D00009250E4607460134ED062146284601F05A
:1009E00010F832463946A020FFF7B1FF21462846CD
:1009F00001F005F8F8BD70B5FF2409250134ED06B6
:100A00002146284600F0FDFF2146284600F0F9FF68
:100A1000052241492A20FFF79AFF3F490522491F35
:100A20003020FFF794FF01212120FFF741FF012132
:100A30002220FFF73DFF1A212420FFF739FF28214C
:100A40002520FFF735FF20213120FFF731FF262138
:100A50000846FFF72DFF0E212020FFF729FF214632
:100A6000284600F0CCFF70BD70B5FF240925013485
:100A7000ED062146284600F0C4FF0F212020FFF795
:100A800017FF2146284600F0BAFF70BD70B5FF245D
:100A900009250134ED062146284600F0B2FF0E215B
:100AA0002020FFF705FF2146284600F0A8FF70BD73
:100AB00010B50720FFF714FF0446800603D5FF2179
:100AC0002720FFF7F5FEE00603D5FF212720FFF7DB
:100AD000EFFE10BD1CB50121880400F036FD40205A
:100AE0000090002069460871C871032048710B48C6
:100AF00000F025FF1CBD10B501242403204600F0A2
:100B0000EFFA002802D0204600F0F2FA10BD0000F3
:100B1000A5A5A5A5A500000013000020000400481D
:100B2000F0B501218E0387B0304600F020FD032090
:100B30000121400400F009FD0927FF0600220D21D4
:100B4000384600F068FF00220E21384600F063FFAF
:100B500000220F21384600F05EFF0220694608712E
:100B600000248C71C87101254D710096304E3046BD
:100B700000F0E5FE680300906946304600F0DFFEB5
:100B8000E80300906946304600F0D9FE69460D71D1
:100B90008C71CD714D71EE023846009600F0CFFE9B
:100BA00069460D718C71CD714D71280200903846E7
:100BB00000F0C5FE3146384600F021FF1D4D2846A5
:100BC00000F016FD694607200C8100028881CC8167
:100BD0000C826815488208208882CC82072008830E
:100BE000FF200530488102A9284600F02AFDA914FB
:100BF000284600F0C4FD0121284600F09DFD07B005
:100C0000F0BD70B50B4C05460221204600F036FEC3
:100C10000028F9D02946204600F0E1FD01212046B8
:100C200000F02CFE0028F9D0204600F0DCFD70BD5D
:100C300000040048003800407047FEE770477047E6
:100C40007047000010B54E48016801221143016051
:100C500041684C4A1140416001684B4A11400160B3
:100C60000168012292049143016041683F2212040D
:100C700091434160C16A09090901C162016BFF2208
:100C8000543291430163416B49084900416300219B
:100C9000816000F02EF810BD70B5394E71680C20DF
:100CA00001403A483A4C03D0042901D0082901D028
:100CB000206014E07268716803239202DB03150F51
:100CC0001940AD1C002907D0F16A0907090F491C1A
:100CD00000F0BEFE6843EBE72E4845432560706890
:100CE0002B490006000F091D085C2168C1402160E6
:100CF00070BD1CB5002322480093019301680122B6
:100D000012041143016051000524240302680A40C3
:100D10000192009A521C0092019A002A02D1009A74
:100D2000A242F3D10168890328D5012101911A4A11
:100D300011211160416841604168416041687F2232
:100D4000D203914341604168112212041143416072
:100D50000168012212061143016001688901FCD576
:100D6000416889088900416041680222114341605D
:100D700041680907890F0229FAD11CBD01931CBDE6
:100D8000001002400CB8FFF8FFFFF6FE00127A00D8
:100D90001800002000093D00002002400F4880F3A9
:100DA00008880F480168090E0E4A914205D10E4885
:100DB0000E4901600E480F4901600F4880470F48F7
:100DC0000047FEE7FEE7FEE7FEE7FEE7FEE700007E
:100DD0000B480C490C4A0D4B70470000C006002020
:100DE000040000001F000000181002400100000075
:100DF0000000014000000000450C0008C100000890
:100E0000C0000020C0060020C0020020C002002058
:100E1000864910B5884208D144150121204600F0CA
:100E2000B8FB0021204600F0B4FB10BD30B5C2680D
:100E30007F4B8C681A400B680D792343CC686D0397
:100E40002C4323430C69496923430B431343C36079
:100E500030BD0021016001718160C16001614161AB
:100E600070470029816801D0012200E0022211436D
:100E70008160704701617047002A026901D00A430E
:100E800000E08A43026170470122D2030029C16851
:100E900001D0114300E09143C160704701229203E9
:100EA0000029C16801D0114300E09143C16070473F
:100EB0000122D2050029C16801D0114300E091430D
:100EC000C16070470904114301627047C2681F2363
:100ED0009B069A430A43C26070470122920500298B
:100EE000C16801D0114300E09143C1607047012205
:100EF0005049D2050028886801D0104300E0904393
:100F00008860704701224B4992050028886801D00B
:100F1000104300E090438860704701224549120663
:100F20000028886801D0104300E090438860704733
:100F3000836A0B4383624261704701225203002996
:100F4000C16801D0114300E09143C16070470122A4
:100F500012040029C16801D0114300E09143C1602F
:100F60007047012212030029C16801D0114300E03B
:100F70009143C1607047826800210123DB071A4357
:100F800082600F231B038268491CD20FD20799424B
:100F900001D0002AF7D18168002901DB006C70477D
:100FA000002070478168102211438160704781687A
:100FB0000422114381607047006C80B270470029A1
:100FC000C16802D00122114301E049084900C16013
:100FD0007047C26802239A43C260C2680A43C26073
:100FE0007047002A426801D00A4300E08A43426009
:100FF000704702460020CB0104D5926801231B06EE
:101000009A4300E012680A4200D001207047016054
:10101000704702465368002012680B400A4202D013
:10102000002B00D001207047016070470024014070
:1010300003D2FFFF0027014030482F490160002103
:1010400041608160C1602E494161704710B583796C
:101050002A490268002B26D00B6893430B604A682C
:1010600003689A434A60027952181368046823435C
:1010700013608A6803689A438A60CA6803689A435F
:10108000CA604279102A05D051180A6800680243E4
:101090000A6010BD8A6803681A438A60CA680068DB
:1010A0000243CA6010BD0079401801689143016095
:1010B00010BD0021016001710C22427181717047E5
:1010C0000E490A6902430A6170470C4A0146526997
:1010D00000200A4200D0012070470849486170474B
:1010E000064A0146526900200A4200D0012070479A
:1010F00002494861704700000000940F000401405D
:10110000FFFF6B00F848016801221143016041684C
:10111000F64A114041600168F54A114001600168DA
:10112000012292049143016041683F2212049143DD
:101130004160C16A09090901C162016BED4A1140B0
:101140000163416B49084900416300218160704798
:10115000E54900228A708870704703460020E24A01
:1011600059090CD001290CD002290CD0516BDA0698
:10117000D20E012393400B4200D00120704711682A
:10118000F5E7116AF3E7516AF1E718B50020052485
:10119000240300901120FFF7E0FF0099491C009103
:1011A000A14201D00028F5D01120FFF7D6FF00287A
:1011B00000D0012018BDCC4A1168F8239943C00023
:1011C000084310607047C8490028086802D001220F
:1011D000104301E04008400008607047C24A516B6C
:1011E000F8239943C000084350637047BE49002864
:1011F000486B02D00122104301E0400840004863E0
:101200007047B94904220028486B01D0904300E0A0
:10121000104348637047B4490A6A520852000A6290
:101220000A6A04239A430A620A6A02430A627047FE
:10123000AD490A6A18239A430A620A6A02430A629B
:101240007047A9490028486A02D00122104301E0F2
:10125000400840004862704710B5A34A53687B2499
:10126000E403A3435360536808430343536010BD32
:1012700001229D4912060028086801D0104300E0B1
:101280009043086070470122974912040028486B78
:1012900001D0104300E0904348637047924AD16AFE
:1012A000090909010143D162704701228E49D20424
:1012B0000028086801D0104300E0904308607047A0
:1012C000894B5A681202120A0006084310435860FC
:1012D0007047854A51688908890001435160704709
:1012E000814840680C21084070477F4A5168F023CC
:1012F00099430143516070477B4A516807231B02A1
:10130000994301435160704777494A6801239B0321
:101310009A434A604A6883B21A434A600A6B8B1543
:101320009A430A630A6B000C02430A6370476E49D2
:101330000A6B40239A430A630A6B02430A637047AD
:1013400069490A6B10239A430A630A6B02430A63D2
:101350007047010F644A01290AD00229116B0BD092
:1013600003239B0499431163116B0143116370477D
:10137000116B89088900F6E703231B04F2E75A4939
:101380000A6B80239A430A630A6B02430A6370471D
:10139000F8B5554E0446706800210C22564D104099
:1013A00005D0042803D0082803D00C281AD02560C3
:1013B0001AE07168706803228902D2030F0F10408F
:1013C000BF1C00280AD0F06A0107090F2846491CF3
:1013D00000F03EFB78430146216005E0474839466E
:1013E0004143F9E7464820607068464F0006000F09
:1013F0003B5C20680246DA40626073685B055B0F05
:10140000FB5CDA40A260336BDB0501D43E4B05E0A8
:1014100073685B0401D4530800E09308E360336B06
:101420005F063A4B03D4394F1237276100E023613E
:10143000376BFF0601D4656100E06061376BBF0761
:101440000ED0376BBF07BF0F012F0BD0376BBF0715
:10145000BF0F022F08D0376BFF43BF0706D006E04F
:10146000A26104E0A06102E0A36100E0A561376B26
:10147000BF03BF0F0FD0376BBF03BF0F012F0CD0BF
:10148000376BBF03BF0F022F09D0376BBF03BF0FEE
:10149000032F06D006E0E26104E0E06102E0E361D0
:1014A00000E0E561376B3F03BF0F0FD0326B1203D3
:1014B000920F012A0CD0306B0003800F022809D054
:1014C000306B0003800F032806D006E0226204E0A0
:1014D000206202E0236200E02562306B000617D430
:1014E00007486062F8BD0000001002400CB8FF0819
:1014F000FFFFF6FEACFEF0FF00127A0000093D008F
:10150000006CDC022C000020809FD50000800000D1
:101510006162E7E735490A6A02430A6270470122BD
:101520003249D2030028086A01D0104300E09043FA
:101530000862704701222D4912040028086A01D070
:10154000104300E0904308627047284A002951691F
:1015500001D0014300E0814351617047234A0029D3
:10156000916901D0014300E08143916170471F4AB6
:101570000029D16901D0014300E08143D161704766
:101580001A4A0029916A01D0014300E08143916227
:101590007047164A0029D16801D0014300E0814319
:1015A000D1607047114A0029116901D0014300E060
:1015B0008143116170470D4A0029517A01D00143DE
:1015C00000E08143517270470848416A01221206C7
:1015D000114341627047054A0146926800200A4261
:1015E00000D0012070470149887270470010024006
:1015F000B24910B5884209D1841401212046FFF771
:10160000C8FF00212046FFF7C4FF10BDAC49884247
:10161000FBD1041401212046FFF7C4FF002120461E
:10162000FFF7C0FF10BD0021018007224180120298
:101630008280C180018141818181C1810721018234
:10164000704730B50388C122920113400A88CC89C3
:101650000D892243CC882C4322434C8922438C8918
:1016600022431A4302808288964B1A408B88134388
:1016700083800A8A02820288042349889A4311439C
:101680000180818B904A1140818330BD002101800F
:1016900041808180C1800222826081817047F0B5E3
:1016A00005460C4602200021AA8B8BB00126854BF3
:1016B000BF3B1A40AA832884AF8BA268022A1FD09E
:1016C000A088002800D002266846FFF761FEE18866
:1016D0000098CA1FFF3AFA3A29D0710100F0B8F910
:1016E0000A214843A16800F0B3F9401D80B20A21E5
:1016F00000F0AEF9C107C90F401AC003000C09027F
:10170000821EFE2A01D302200021E2880843024300
:101710002A8420886188A2890843A188114308434C
:1017200001213843C9020843A8830BB0F0BD000A69
:101730000A225043A168D6E740220029018801D03F
:10174000114300E0914301807047102200298188F5
:1017500001D0114300E09143818070470029818BC3
:1017600003D001229202114301E0584A11408183C3
:1017700070478288534B1A400A43828070478288A0
:10178000534B1A40828082880A438280704701222C
:1017900092039142018801D1114301E04D4A114069
:1017A000018070474C4A9142018803D0FF220132E8
:1017B000114300E011400180704704220029818814
:1017C00001D0114300E09143818070470822002935
:1017D000818801D0114300E09143818070470173FB
:1017E000704781817047007B70478089704702880D
:1017F000354B1A40028002880A4302807047002954
:10180000018803D001225203114301E0334A114001
:101810000180704701880122120311430180704743
:10182000012901D0008B7047808A7047008A704779
:10183000002A828801D00A4300E08A4382807047F0
:101840008288274B1A40828082880A4382807047B0
:10185000090901238B40002A828899B201D00A43EA
:1018600000E08A438280704700890321C902084052
:1018700070470089032149020840704702461289D7
:1018800000200A4200D001207047C94301817047FF
:1018900030B50D0701242D0F2346AB400246002032
:1018A00009098C4091889BB2A4B2128921401A4246
:1018B00002D0002900D0012030BD000000300140DE
:1018C00000380040FFF00000FFF70000FFFB0000C1
:1018D000FFEF0000FFBF0000FFFE0000FFDF000081
:1018E000FF9F0000092110B5C906884202D10121DD
:1018F0004C0404E05049884209D1012104022046E9
:10190000FFF73EFE00212046FFF73AFE10BD4B498F
:10191000884202D101210402F1E74949884202D1FB
:1019200001210C05EBE74749884202D1012144021D
:10193000E5E745498842E9D101218C05DFE7F0B5AB
:101940000022032501230C6893401C409C422AD1AD
:101950000C79012C01D0022C12D1876854002E463C
:10196000A640B74387604E79A640846826438660C8
:1019700084889C43848084888B7993401C43848032
:10198000066853002C469C40A64306600E79076803
:101990009E403E430660C668A643C660CC799C4024
:1019A000C3681C43C460521C102ACBD3F0BD274926
:1019B000016000210171012242718171C171704782
:1019C000012208B512040A430092C261C161009964
:1019D000C161C169C069009008BD0246128A002039
:1019E0000A4200D001207047008A70470246928A5E
:1019F00000200A4200D001207047808A7047816130
:101A0000704701857047002A01D0816170470185C8
:101A10007047818270474B07DB0E9A40C90810B5AA
:101A200089000818016A0F249C40A1430162016AE1
:101A30001143016210BD0000000400480008004886
:101A4000000C00480010004800140048FFFF000090
:101A5000002203098B422CD3030A8B4211D30023AB
:101A60009C464EE003460B433CD4002243088B4285
:101A700031D303098B421CD3030A8B4201D3944612
:101A80003FE0C3098B4201D3CB01C01A5241830905
:101A90008B4201D38B01C01A524143098B4201D3BF
:101AA0004B01C01A524103098B4201D30B01C01AEA
:101AB0005241C3088B4201D3CB00C01A5241830864
:101AC0008B4201D38B00C01A524143088B4201D391
:101AD0004B00C01A5241411A00D2014652411046F1
:101AE00070475DE0CA0F00D04942031000D3404266
:101AF000534000229C4603098B422DD3030A8B429C
:101B000012D3FC22890112BA030A8B420CD3890139
:101B100092118B4208D3890192118B4204D389011F
:101B20003AD0921100E08909C3098B4201D3CB015D
:101B3000C01A524183098B4201D38B01C01A524112
:101B400043098B4201D34B01C01A524103098B4216
:101B500001D30B01C01A5241C3088B4201D3CB0001
:101B6000C01A524183088B4201D38B00C01A5241E4
:101B7000D9D243088B4201D34B00C01A5241411ABB
:101B800000D20146634652415B10104601D34042E9
:101B9000002B00D54942704763465B1000D340429A
:101BA00001B50020C046C04602BD7047704770476F
:101BB0000246C80FC00781434B0030B54B405B0065
:101BC0009B0D20D01923DB06C91801231B05994260
:101BD00020DB0324A40704251346AB400BD3002BC2
:101BE00004D1EB0613409B00E34204D401246407B4
:101BF000002312195941FF231B0599420BD2C9003A
:101C00000143500F09E0CB0204D50143080302430E
:101C100005D0054830BDFF21C905084330BD084641
:101C200007210905884330BD0000C07F1F22030C37
:101C300002D10F22000402D0030E03D004E00020E2
:101C4000014670470002083A030F01D10001121F3C
:101C5000830F01D18000921E002801DB4000521E3C
:101C6000120551184205C012411810467047C10FA5
:101C7000C90700D04042012292071143D6E7012153
:101C80008907D3E7F0B58B4C0F09254689B0BD43D2
:101C90007BD01D092646AE43FAD00E465E40274053
:101CA000F60F3E43254071D024012142FBD0FF2492
:101CB000AD19A4042D1B039501252D05DB02DB0ABC
:101CC000C9022B43C90A29431E010901040F130F3E
:101CD000050121431701880B820391432D098C468E
:101CE000A90B1E438A039543B30B9A0396433F09FE
:101CF000BA0B9403A74302962E467E430497B6463A
:101D00004E19D7190C460196544305977E43371B4D
:101D10007646BF1B3601B646BE0B36190096764690
:101D2000BC043719009C01D3641C00946400002F8C
:101D300001D001263443029E049F754366467E43CC
:101D40000496760034196E0034190094029C019EAA
:101D50001C196643751BAE46069465464519059CDD
:101D600005956C43594375460891691A0191049E83
:101D700001465143A41B0491611A009C0791E1069E
:101D800005D061090122114302E072E06EE06109B1
:101D9000089D00272C0A2D066918049D7C412A0AFB
:101DA0002D066918019D6241AC0DAD026D185441BC
:101DB000079A910D920255196141029A644658435F
:101DC0005443069B059A5A43121A131B9A0E9B0101
:101DD0005B187A41010B0005C3185141220A200605
:101DE00044195A419A4200D2491C012040028142C2
:101DF00003D315230226F64302E014230326F643F9
:101E00002020C51AA9401746AF40DA400A432046B1
:101E10000399D8400914731819055118039A3843C7
:101E2000D2075140AC4009D00122944006D3002291
:101E3000401C5141002C01D1400840001E4A9342F1
:101E400012D3012203989206904207DB0520400737
:101E500009181A480143C012414004E0032040071A
:101E60000818C10FC907002009B0F0BD0020F10714
:101E7000FAE705180C464C4111486D42A04115D3B4
:101E800094181A465A410E48644290410ED30120DC
:101E90004A004005824209D35A00824206D3594083
:101EA000C90F084AC90700201143DDE70020064991
:101EB000DAE700000000FF07FE070000FFFFFF7FDA
:101EC0000000E0FF0000F07F0000F87F70B50546DD
:101ED0004800440D124B0020002C0AD0634008D06B
:101EE0009A4206DA6642B24203DD120540195141B8
:101EF00070BD002C08D0002B09D0C90FC907002ADB
:101F0000F6DB084A114370BDC90FC90770BD2846EA
:101F10000A03104302D00020034970BD284670BD5B
:101F2000FF0700000000F07F0000F87F754600F01A
:101F300025F8AE46050069465346C008C0008546F0
:101F400018B020B5FEF744FF60BC00274908B6462C
:101F50000026C0C5C0C5C0C5C0C5C0C5C0C5C0C5B8
:101F6000C0C5403D49008D46704710B50446C04687
:101F7000C0462046FEF7EFF810BD0000004870474D
:101F80005C00002001491820ABBEFEE726000200DD
:101F900070470000B41F0008000000203C00000053
:101FA00004010008F01F00083C0000208406000027
:101FB00020010008000000000000000000000000F8
:101FC000000013316366851331636685006CDC02A3
:101FD00000000000000000000102030406070809D9
:101FE00000000000010203040102030406070809BF
:04000005080000C12E
:00000001FF
